:1000000043C0000065C0000063C0000061C0000084
:100010005FC000005DC000005BC0000059C0000070
:1000200057C0000055C0000053C0000051C0000080
:100030004FC000004DC000004BC0000049C0000090
:1000400047C0000045C0000043C0000041C00000A0
:100050003FC000003DC000003BC0000039C00000B0
:1000600037C0000035C0000033C0000031C00000C0
:100070002FC000002DC000002BC0000029C00000D0
:1000800027C0000025C0000011241FBECFEFCDBF48
:10009000DFE7DEBF00C0209101102F7C206138ED2A
:1000A00034BF2093011010E6A0E0B0E6E6E5FEE0E4
:1000B00002C005900D92A830B107D9F724E6A8E058
:1000C000B0E601C01D92A433B207E1F72BD09EC663
:1000D00097CFCF93DF9300D0CDB7DEB789E190E023
:1000E00019821A8229813A81283E334038F00197DB
:1000F000B9F70F900F90DF91CF91089500002981FB
:100100003A812F5F3F4F29833A83ECCF88E0809379
:1001100046048093420496D288ED91E084BF909388
:100120000001FFCF809140008CBB9FEF9093400077
:1001300090911001906428ED24BF9093100184FFEA
:1001400034C01092346410923564C0E4DFE18091D1
:10015000680098ED837C846294BF8093680080E09F
:1001600094BF809361008091650081FFFCCF36D2FF
:10017000B6D289D3C0930860D093096088E0809399
:1001800041048093460458D218E0C0E0D0E00FD17B
:10019000A7D29DD321968091086090910960C817DD
:1001A000D907A8F310934704F0CF82FF25C08091B0
:1001B0003464909135648D399B4639F410923464DF
:1001C00010923564C0E8DEE3C2CF8DE99BE68093F0
:1001D00034649093356488E080934104C8E0DAE0A9
:1001E000C093450476DFC093460473DFD150C1F756
:1001F000C0934604C0934204109234641092356454
:10020000E0E0F0E185919591C0E0DDE7019609F429
:100210009ECFF89488E080934604809342048091B6
:10022000100198ED8F7B94BF809310011092000C09
:100230001092010C80910110806394BF8093011093
:10024000E0E0F8E0099480910B0C82FDFCCF08956A
:10025000EAEEF0E681A1846081A381A5846081A794
:1002600010921060109211600895CF939B01461771
:10027000570708F49A012134310550F5FC01820F2B
:10028000931FA2EAB0E6E817F907F9F482EA90E6CC
:1002900080931661909317612093146130931561D8
:1002A000109218611092196183E480931361CBDF7F
:1002B000CAE6C093420CC7DFC093400C81E0809334
:1002C000106010921160CF91089541914D93DBCF52
:1002D0008093166190931761209314613093156198
:1002E000109218611092196183E7DFCFEAEEF0E611
:1002F00012A613A616A617A683E481A7A4DF8AE692
:100300008093420C83E080931060109211600895F6
:10031000EAEEF0E682E291E0DF019C011D922150BD
:100320003040E1F783E481A322EE30E624A335A335
:1003300010A281A782EA90E684A795A782E080A711
:1003400091E891AF22E930E624AF35AF80AF93E872
:1003500090932B6122E530E620932E6130932F613C
:1003600010922A619093436122E130E62093466126
:1003700030934761809342610895B8CF76CFEAEE1B
:10038000F0E684A795A712A613A666A777A783E62B
:1003900081A759DF8AE68093400C82E08093106049
:1003A0001092116081E080930D60089551CFCF933A
:1003B000DF9380910A0CC0910B0C84FF11C0109246
:1003C000030CA6DF109210601092116010920E6064
:1003D00010920F6010920D6060D180E180930A0C42
:1003E000C0FF17C083E480930B61809313612BDF00
:1003F000D0E1D093400C27DFD093420C8091E26093
:10040000807609F1803209F49AC022DF81E080937E
:100410000B0CC5FFD4C08091126185FF99C013DF1A
:1004200080E28093420C8091106090911160813045
:10043000910509F488C0059709F4C4C010921060B2
:100440001092116085C0E091E360EC30F0F6F0E0CE
:10045000E85FF84FCEC42091E4603091E560832FCF
:1004600090E08230910589F18330910539F0019750
:1004700061F662E170E086EB90E81BC0822F90E0AD
:100480002230E9F08330910538F4892B69F464E077
:1004900070E08FE690E80DC009F0B7CF6091008062
:1004A00070E081E090E805C06091508070E081E5E7
:1004B00090E84091E8605091E960D7DEA7CF609165
:1004C000178070E088E190E8F4CF63E470E083E7A0
:1004D00090E8EFCF8091E4608F7780930F6006DF24
:1004E00085E0809310601092116090CF80910E6033
:1004F00080930A604091E8605091E96061E070E0AB
:100500008AE090E6DACF8091E46080930E60EEDEC0
:100510009ADE82E08093480C79CF10920B601092A3
:100520000C604091E8605091E96062E070E08BE01F
:1005300090E6C3CFDBDE6ACF10920A60DBCF82EE9B
:1005400090E686D063CF84E08093106010921160B3
:1005500080910A6185FF12C076DE80E28093400CB4
:100560008091106090911160029799F580910D60D3
:10057000811519F010920D608AD0B8DE8091226149
:1005800085FF04C060DE80E28093460C80912A6182
:1005900085FF09C058DE80E28093480C80912C6171
:1005A00090912D618BD08091426185FF05C04BDE1B
:1005B00080E280934E0C90D080E280930B0CDF9110
:1005C000CF91089580910F608093030C10920F607B
:1005D00035CF1092106010921160D0CF80916800DA
:1005E0008C7B826498ED94BF8093680081E0809357
:1005F000060F8FE697E10197F1F700C0000088DE53
:100600008AE091E68093060C9093070C1092080CF8
:100610001092090C83E88093000C80E492E4AFE030
:10062000B0E02091850020FD04C00197A040B040BB
:10063000C1F71092010C0895E0E0FCE08181816037
:1006400081830895E0E0FCE081818E7F81830895BD
:10065000FC019181943230F49232C0F4903219F05E
:10066000913269F0A3CE868197810797D9F781E00F
:100670008093136267E070E080E090E680CE468170
:10068000578167E070E080E090E678CE76CE80918A
:1006900013628111109213620895109211621092E8
:1006A000126210920F621092106210920E621092FB
:1006B0000C6210920D6210921362089581349105BC
:1006C00010F080E490E08093116290931262109297
:1006D0000F6210921062089510920E620895DDCF9D
:1006E0008091116290911262892BF1F020910F623A
:1006F000309110628091116290911262281739072F
:1007000098F0109211621092126210920F62109281
:10071000106210922C6110922D6180910B0C82FD61
:10072000FCCF82E08093480C80910E62811120C042
:1007300080910C6290910D62892BD1F08091426181
:1007400081FF16C080910C6290910D62809344618C
:100750009093456180910B0C82FDFCCF82E08093E9
:100760004E0C81E080930E6210920C6210920D622A
:10077000089520910F6230911062809111629091E2
:1007800012622817390788F480910F6290911062E5
:100790009C012F5F3F4F20930F62309310628E5A5F
:1007A0009F49FC01808190E008958FEF9FEF0895AD
:1007B000CF93DF930F92CDB7DEB7898380910C6220
:1007C00090910D6280349105B0F480910C6290910B
:1007D0000D629C012F5F3F4F20930C6230930D629E
:1007E0008E5E9F492981FC0120830F90DF91CF917C
:1007F000089576DFDCDD80910E628111FACF809161
:100800000C6290910D628034910598F7DECF809153
:100810000C6290910D62892B89F480910E62811196
:100820000DC008955DDFC3DD80910E62811106C0A9
:1008300080910C6290910D62892B01F180910E6282
:100840008111F0CF80910C6290910D62892B51F350
:1008500080910C6290910D62809344619093456108
:1008600080910B0C82FDFCCF82E080934E0C81E0E6
:1008700080930E6210920C6210920D62089584E1D2
:1008800097DF80E195CF109232641092336410921A
:100890002F641092306410922E641092196410929A
:1008A00017641092186410921664109214621092D9
:1008B0001562EAE1F4E684E1DF011D928A95E9F729
:1008C00040E052E06FEF70E086E192E698C28F92CE
:1008D0009F92AF92BF92EF92FF920F931F93CF938D
:1008E000DF9300D000D0CDB7DEB702E010E041DFEB
:1008F00097FF0EC02496CDBFDEBFDF91CF911F9131
:100900000F91FF90EF90BF90AF909F908F900895C0
:10091000482F20913264309133642330310509F43B
:100920003FC148F52130310509F47AC02230310544
:1009300009F04EC0803209F0CFC0E0913164E03F51
:1009400009F08FC0809116648F7D863409F07AC0DB
:10095000209117643091186460912F647091306415
:1009600080E090E046E152E66CD189DF109232647B
:1009700010923364BCCF2430310509F43DC12530D9
:10098000310509F0B4CFE091196491E09E0F909386
:100990001964F0E0E65EFB49808380912E6481500B
:1009A00080932E648111A3CF80911A6490911B646F
:1009B000982789279827809317649093186420912B
:1009C0001C64209316648130924070F481EF2CC136
:1009D000809331648053863438F4E82FF0E0E55397
:1009E000FF4780818E3F29F4009332641093336473
:1009F0007ECF70F01092196483E080932E644436A9
:100A000029F4809332641092336471CF85E0F9CF7A
:100A1000811551F31092196480932E6481E0F1CF17
:100A2000E091196491E09E0F90931964F0E0E65E06
:100A3000FB49808380912E64815080932E648115C0
:100A400099F255CF853409F090CF409117645091B9
:100A5000186466E172E680912F649091306489D1C8
:100A600084CFE13F81F584E1A3DE80902F649090F4
:100A70003064A12CB12C7501809117649091186499
:100A8000E816F90618F080E193DE70CF80911664C5
:100A90008F7D863461F4B401C5016E0D7F1D811D0B
:100AA000911D53D185DE2FEFE21AF20AE5CF85348E
:100AB00041F480912F64909130648E0D9F1D91D1EF
:100AC000F1CF8FEFEFCFE73580F4E03438F4E03347
:100AD00009F44BCFE133B1F085E1D6CFE054E731F3
:100AE000D8F7F0E0EC5EF84F84C1E537A9F784E170
:100AF0005FDE809180105CDE8091811059DE8091F4
:100B0000821020C084E154DE91E1E92E91E8F92EB3
:100B1000F7014FEFE41AF40A80814ADE88E1E81613
:100B200081E8F806A9F7AFCFE0911A64E05883E0B6
:100B3000F82EE33020F4F0E0E853FF47F08084E142
:100B400037DE8F2D35DE9FCF84E132DE80E130DE6F
:100B50005EDE19821A821B821C8289819A81AB8196
:100B6000BC8180349D40A340B10508F0CFDA898173
:100B70009A81AB81BC810196A11DB11D89839A83A5
:100B8000AB83BC83EACF80911A6490911B648093FD
:100B90002F6490933064E9CE84E10ADE80E0D2CF06
:100BA000E091196491E09E0F90931964F0E0E65E85
:100BB000FB49808380912E64815080932E64811143
:100BC00096CE80911A6490911B64382F292F9093B0
:100BD00017648093186440911C644093166421301C
:100BE000324008F001CF1092146210921562892BE6
:100BF00009F4FACE84E005CF209114623091156299
:100C0000A9014F5F5F4F40931462509315622A5EB3
:100C10003D49F901808380911764909118644817C9
:100C2000590708F464CE80EF8093316482E0E9CE06
:100C30009091061091FDFCCF9DE994BF8093001028
:100C40000895BF92CF92DF92EF92FF920F931F937E
:100C5000CF93DF936A0170318105910508F46BC071
:100C60002115310509F467C0E9012130324010F047
:100C7000C0E0D2E02091011031E07038810591058B
:100C800008F430E0F32EF29480EFF8222F7C322F1C
:100C90003F2928ED24BF309301108B011068E02E0E
:100CA000B12E88E0C5DF8FEFF801808380910610B8
:100CB00081FDFCCF81E0BCDF809101108F7CF82AA0
:100CC00088ED84BFF092011082E0B2DFD60181E0AE
:100CD00090E08C179D07F0F0CE018E7F8C179D075A
:100CE00070F4EC01C00FD11FC80ED91EF60180812F
:100CF0009FEF888399838091061081FDFCCF81E06E
:100D0000DF91CF911F910F91FF90EF90DF90CF90E7
:100D1000BF908ECF11964C912E91342FEE2DFB2D3E
:100D2000219331932091061021FDFCCF029612965B
:100D3000EE2EBF2ECECFDF91CF911F910F91FF905E
:100D4000EF90DF90CF90BF9008953091011021E097
:100D500070388105910508F420E03F7C20FD30616A
:100D600028ED24BF30930110AB015068FA01808157
:100D700008950F931F93911131C08A0120E030E054
:100D8000080F191F211D311D0130114021053105AA
:100D900010F140E051E0481B590BFC01FC5E8091D2
:100DA00006108370E1F78DE984BF83E18093001022
:100DB000DB01460F571F8D9180838091061080FDC7
:100DC000FCCF3196A417B507B1F78DE984BF81E058
:100DD0008093001003C041155105F9F61F910F9142
:100DE0000895911104C0FC01FC5E808108958FEF8D
:100DF0000895EE0FFF1F0590F491E02D0994DC019A
:100E000001C06D9341505040E0F70895F894FFCF32
:100E10008D029A0205029A0205026A022B0205025D
:100E2000760283029C029A02B5049405B5046C050F
:100E30006C05B5046C056C056C056C056C056C05E2
:100E40006C056C056C056C05B504A405B5046C0552
:060E50006C05C305CC0592
:080E560000C2010000000800C9
:1080000016160342004C00300030003000300030C3
:1080100000300030003100383803570061007A002A
:1080200061006D006F006E006F002000540073004F
:1080300075007200750067006900200042006F0043
:108040006F0074006C006F006100640065007200D6
:108050001E1E0357006F0072006B00730068006FF4
:108060000070002000410073006100680069000496
:1080700003090409024300020100803209040000E0
:108080000102020100052400100105240100010481
:10809000240202052406000107058103100040099F
:1080A000040100020A000000070502024000000768
:1080B0000583024000001201000202000040091284
:1080C00007000001010203010108020000FEFEFE9C
:1080D000FEFEFEFEFEFEFEFEFEFEFE020114FEFEA3
:1080E00005FEFEFEFEFEFEFEFEFEFE000000FEFEA3
:1080F0000204FEFEFEFEFEFEFEFEFEFEFEFEFEFF95
:10810000FEFEFEFEFEFEFEFEFEFEFEFEFEFEFEFF8E
:09811000004156522053544B006B
:00000001FF
