:1000000043C000005CC000005AC0000058C000009F
:1000100056C0000054C0000052C0000050C0000094
:100020004EC000004CC000004AC0000048C00000A4
:1000300046C0000044C0000042C0000040C00000B4
:100040003EC000003CC000003AC0000038C00000C4
:1000500036C0000034C0000032C0000030C00000D4
:100060002EC000002CC000002AC0000028C00000E4
:1000700026C0000024C0000022C0000020C00000F4
:100080001EC000001CC0000011241FBECFEFCDBF5A
:10009000DFE7DEBF11E6A0E0B0E6E8E4FEE002C084
:1000A00005900D92A032B107D9F725E6A0E2B1E69E
:1000B00001C01D92AC34B207E1F72BD0A0C6A0CF8F
:1000C000CF93DF9300D0CDB7DEB789E190E01982FE
:1000D0001A8229813A81283E334038F00197B9F7D6
:1000E0000F900F90DF91CF910895000029813A8100
:1000F0002F5F3F4F29833A83ECCF80E480936604DF
:100100008093620498D288ED91E084BF90930001BF
:10011000FFCF209140002CBB8FEF80934000809157
:100120001001806490E038ED34BF8093100124FF0B
:1001300034C010924C6510924D65C0E4DFE18091AF
:10014000680098ED837C846294BF8093680080E0AF
:1001500094BF809361008091650081FFFCCF37D20E
:10016000B7D28AD3C0932061D093216180E4809379
:1001700061048093660459D210E4C0E0D0E010D14D
:10018000A8D29ED321968091206190912161C817B9
:10019000D907A8F310936704F0CF22FF25C0809100
:1001A0004C6590914D658D399B4639F410924C65A4
:1001B00010924D65C0E8DEE3C2CF8DE99BE68093E7
:1001C0004C6590934D6580E480936104C0E4DAE06F
:1001D000C093650475DFC093660472DFD150C1F728
:1001E000C0936604C093620410924C6510924D65F2
:1001F000E0E0F0E185919591C0E0DDE7019609F43A
:100200009ECFF89480E4809366048093620480918A
:10021000100128ED8F7B90E024BF80931001109295
:10022000000C1092010C80910110806324BF809318
:100230000110E0E0F8E0099480910B0C82FDFCCF06
:100240000895E2E0F2E681A1846081A381A5846043
:1002500081A710922861109229610895CF939B0184
:100260004617570708F49A012134310550F5FC016F
:10027000820F931FAAEBB1E6E817F907F9F48AEBAE
:1002800091E680932E6290932F6220932C6230939C
:100290002D62109230621092316283E480932B625F
:1002A000CBDFCAE6C093420CC7DFC093400C81E0AD
:1002B0008093286110922961CF91089541914D93C7
:1002C000DBCF80932E6290932F6220932C62309329
:1002D0002D62109230621092316283E7DFCFE2E04C
:1002E000F2E612A613A616A617A683E481A7A4DF3A
:1002F0008AE68093420C83E0809328611092296102
:100300000895E2E0F2E682E291E0DF019C011D92B5
:1003100021503040E1F783E481A32AEF31E624A3A2
:1003200035A310A281A78AEB91E684A795A782E066
:1003300080A791E891AF2AEA31E624AF35AF80AFCC
:1003400093E8909343622AE631E620934662309325
:1003500047621092426290935B622AE231E62093F8
:100360005E6230935F6280935A620895B8CF76CF11
:10037000E2E0F2E684A795A712A613A666A777A7E0
:1003800083E681A759DF8AE68093400C82E0809360
:1003900028611092296181E080932561089551CFF1
:1003A000CF93DF9380910A0CC0910B0C84FF11C096
:1003B0001092030CA6DF109228611092296110920E
:1003C0002661109227611092256160D180E18093AF
:1003D0000A0CC0FF17C083E48093236280932B62D2
:1003E0002BDFD0E1D093400C27DFD093420C8091DB
:1003F000FA61807609F1803209F49AC022DF81E047
:1004000080930B0CC5FFD4C080912A6285FF99C0F0
:1004100013DF80E28093420C8091286190912961E2
:100420008130910509F488C0059709F4C4C0109281
:1004300028611092296185C0E091FB61EC30F0F6F3
:10044000F0E0EF5FF84FCEC42091FC613091FD6188
:10045000832F90E08230910589F18330910539F046
:10046000019761F662E170E08DEB90E61BC0822F90
:1004700090E02230E9F08330910538F4892B69F45B
:1004800064E070E086E790E60DC009F0B7CF6091B8
:10049000076070E088E090E605C06091576070E00A
:1004A00088E590E64091006250910162D7DEA7CFC7
:1004B00060911E6070E08FE190E6F4CF63E470E03D
:1004C0008AE790E6EFCF8091FC618F778093276178
:1004D00006DF85E0809328611092296190CF80919A
:1004E000266180932261409100625091016261E037
:1004F00070E082E291E6DACF8091FC618093266120
:10050000EEDE9ADE82E08093480C79CF1092236170
:1005100010922461409100625091016262E070E0AB
:1005200083E291E6C3CFDBDE6ACF10922261DBCF9C
:100530008AEF91E686D063CF84E0809328611092A1
:1005400029618091226285FF12C076DE80E280936D
:10055000400C8091286190912961029799F58091D2
:100560002561811519F0109225618AD0B8DE80913D
:100570003A6285FF04C060DE80E28093460C809181
:10058000426285FF09C058DE80E28093480C80916A
:100590004462909145628BD080915A6285FF05C07C
:1005A0004BDE80E280934E0C90D080E280930B0C67
:1005B000DF91CF910895809127618093030C109271
:1005C000276135CF1092286110922961D0CF809198
:1005D00068008C7B826498ED94BF8093680081E012
:1005E0008093060F8FE697E10197F1F700C00000B6
:1005F00088DE82E292E68093060C9093070C1092BC
:10060000080C1092090C83E88093000C80E492E4BB
:10061000AFE0B0E02091850020FD04C00197A0402C
:10062000B040C1F71092010C0895E0E0FCE0818138
:10063000816081830895E0E0FCE081818E7F818389
:100640000895FC019181943230F49232C0F49032DA
:1006500019F0913269F0A3CE868197810797D9F777
:1006600081E080932B6367E070E080E090E680CECD
:100670004681578167E070E080E090E678CE76CEE4
:1006800080912B63811110922B630895109229633E
:1006900010922A63109227631092286310922663A7
:1006A000109224631092256310922B630895813475
:1006B000910510F080E490E08093296390932A6381
:1006C000109227631092286308951092266308956C
:1006D000DDCF8091296390912A63892BF1F02091DD
:1006E0002763309128638091296390912A632817AA
:1006F000390798F01092296310922A6310922763A9
:1007000010922863109244621092456280910B0C03
:1007100082FDFCCF82E08093480C8091266381119A
:1007200020C08091246390912563892BD1F0809122
:100730005A6281FF16C08091246390912563809353
:100740005C6290935D6280910B0C82FDFCCF82E035
:1007500080934E0C81E08093266310922463109264
:100760002563089520912763309128638091296340
:1007700090912A632817390788F480912763909114
:1007800028639C012F5F3F4F20932763309328639A
:1007900086599E49FC01808190E008958FEF9FEF7C
:1007A0000895CF93DF930F92CDB7DEB78983809101
:1007B00024639091256380349105B0F48091246383
:1007C000909125639C012F5F3F4F209324633093CA
:1007D0002563865D9E492981FC0120830F90DF916E
:1007E000CF91089576DFDCDD809126638111FACF09
:1007F00080912463909125638034910598F7DECF32
:100800008091246390912563892B89F480912663DC
:1008100081110DC008955DDFC3DD809126638111D4
:1008200006C08091246390912563892B01F180910A
:1008300026638111F0CF8091246390912563892BE9
:1008400051F3809124639091256380935C6290932F
:100850005D6280910B0C82FDFCCF82E080934E0C98
:1008600081E080932663109224631092256308959B
:1008700084E197DF80E195CF10924A6510924B6535
:100880001092476510924865109246651092316546
:1008900010922F651092306510922E6510922C6385
:1008A00010922D63E2E3F5E684E1DF011D928A9563
:1008B000E9F740E052E06FEF70E08EE293E698C215
:1008C0008F929F92AF92BF92EF92FF920F931F93DE
:1008D000CF93DF9300D000D0CDB7DEB702E010E0B9
:1008E00041DF97FF0EC02496CDBFDEBFDF91CF91D1
:1008F0001F910F91FF90EF90BF90AF909F908F90BE
:100900000895482F20914A6530914B652330310579
:1009100009F43FC148F52130310509F47AC022308D
:10092000310509F04EC0803209F0CFC0E091496531
:10093000E03F09F08FC080912E658F7D863409F0ED
:100940007AC020912F653091306560914765709134
:10095000486580E090E04EE253E66CD189DF10926A
:100960004A6510924B65BCCF2430310509F43DC176
:100970002530310509F0B4CFE091316591E09E0F4B
:1009800090933165F0E0EE5CFA4980838091466592
:100990008150809346658111A3CF809132659091FB
:1009A000336598278927982780932F659093306522
:1009B0002091346520932E658130924070F481EF50
:1009C0002CC1809349658053863438F4E82FF0E0D9
:1009D000EE52FF4980818E3F29F400934A651093BF
:1009E0004B657ECF70F01092316583E08093466551
:1009F000443629F480934A6510924B6571CF85E0A7
:100A0000F9CF811551F3109231658093466581E0ED
:100A1000F1CFE091316591E09E0F90933165F0E068
:100A2000EE5CFA49808380914665815080934665EB
:100A3000811599F255CF853409F090CF40912F65FB
:100A4000509130656EE273E68091476590914865FC
:100A500089D184CFE13F81F584E1A3DE80904765B1
:100A600090904865A12CB12C750180912F659091D3
:100A70003065E816F90618F080E193DE70CF8091BA
:100A80002E658F7D863461F4B401C5016E0D7F1D26
:100A9000811D911D53D185DE2FEFE21AF20AE5CFB9
:100AA000853441F480914765909148658E0D9F1D76
:100AB00091D1F1CF8FEFEFCFE73580F4E03438F408
:100AC000E03309F44BCFE133B1F085E1D6CFE05408
:100AD000E731D8F7F0E0E35FF84F84C1E537A9F7D5
:100AE00084E15FDE809180105CDE8091811059DEB0
:100AF0008091821020C084E154DE98E1E92E91E6D5
:100B0000F92EF7014FEFE41AF40A80814ADE8FE1F3
:100B1000E81681E6F806A9F7AFCFE0913265E05814
:100B200083E0F82EE33020F4F0E0E153FF49F08059
:100B300084E137DE8F2D35DE9FCF84E132DE80E128
:100B400030DE5EDE19821A821B821C8289819A81C4
:100B5000AB81BC8180349D40A340B10508F0CDDA63
:100B600089819A81AB81BC810196A11DB11D8983C8
:100B70009A83AB83BC83EACF8091326590913365D1
:100B80008093476590934865E9CE84E10ADE80E072
:100B9000D2CFE091316591E09E0F90933165F0E006
:100BA000EE5CFA498083809146658150809346656A
:100BB000811196CE8091326590913365382F292F1F
:100BC00090932F65809330654091346540932E65F6
:100BD0002130324008F001CF10922C6310922D6327
:100BE000892B09F4FACE84E005CF20912C63309153
:100BF0002D63A9014F5F5F4F40932C6350932D638A
:100C0000225D3C49F901808380912F659091306588
:100C10004817590708F464CE80EF8093496582E055
:100C2000E9CE9091061091FDFCCF9DE994BF809391
:100C300000100895BF92CF92DF92EF92FF920F9330
:100C40001F93CF93DF936A0170318105910508F4FA
:100C50006BC02115310509F467C0E901213032402C
:100C600010F0C0E0D2E02091011031E07038810531
:100C7000910508F430E0F32EF29480EFF8222F7CF7
:100C8000322F3F2928ED24BF309301108B011068CB
:100C9000E02EB12E88E0C5DF8FEFF80180838091D0
:100CA000061081FDFCCF81E0BCDF809101108F7CBC
:100CB000F82A88ED84BFF092011082E0B2DFD601FD
:100CC00081E090E08C179D07F0F0CE018E7F8C17AD
:100CD0009D0770F4EC01C00FD11FC80ED91EF6019C
:100CE00080819FEF888399838091061081FDFCCFDE
:100CF00081E0DF91CF911F910F91FF90EF90DF90F6
:100D0000CF90BF908ECF11964C912E91342FEE2D17
:100D1000FB2D219331932091061021FDFCCF0296EB
:100D20001296EE2EBF2ECECFDF91CF911F910F9155
:100D3000FF90EF90DF90CF90BF9008953091011019
:100D400021E070388105910508F420E03F7C20FD0A
:100D5000306128ED24BF30930110AB015068FA01D7
:100D6000808108950F931F93911131C08A0120E073
:100D700030E0080F191F211D311D013011402105E0
:100D8000310510F140E051E0481B590BFC01FC5EBD
:100D9000809106108370E1F78DE984BF83E1809331
:100DA0000010DB01460F571F8D9180838091061044
:100DB00080FDFCCF3196A417B507B1F78DE984BF4C
:100DC00081E08093001003C041155105F9F61F9191
:100DD0000F910895911104C0FC01FC5E808108957B
:100DE0008FEF0895EE0FFF1F0590F491E02D099409
:100DF000DC0101C06D9341505040E0F70895F89434
:100E0000FFCF86029302FE019302FE0163022402D9
:100E1000FE016F027C0295029302AE048D05AE04C2
:100E200065056505AE04650565056505650565052A
:100E300065056505650565056505AE049D05AE049A
:080E400065056505BC05C5054B
:100E480000C2010000000816160342004C003000E2
:100E580030003000300030003000300031003838C9
:100E680003570061007A0061006D006F006E006F2B
:100E78000020005400730075007200750067006957
:100E880000200042006F006F0074006C006F00616A
:100E9800006400650072001E1E0357006F00720098
:100EA8006B00730068006F00700020004100730041
:100EB8006100680069000403090409024300020193
:100EC800008032090400000102020100052400101C
:100ED800010524010001042402020524060001077B
:100EE80005810310004009040100020A0000000700
:100EF80005020240000007058302400000120100BD
:100F0800020200004009120700000101020301016A
:100F180008020000FEFEFEFEFEFEFEFEFEFEFEFED7
:100F2800FEFE020114FEFE05FEFEFEFEFEFEFEFEB5
:100F3800FEFE000000FEFE0204FEFEFEFEFEFEFEB9
:100F4800FEFEFEFEFEFEFFFEFEFEFEFEFEFEFEFEB8
:100F5800FEFEFEFEFEFEFF004156522053544B009B
:040FFA00F8950895C9
:020FFE00011AD6
:00000001FF
