:1000000043C000005CC000005AC0000058C000009F
:1000100056C0000054C0000052C0000050C0000094
:100020004EC000004CC000004AC0000048C00000A4
:1000300046C0000044C0000042C0000040C00000B4
:100040003EC000003CC000003AC0000038C00000C4
:1000500036C0000034C0000032C0000030C00000D4
:100060002EC000002CC000002AC0000028C00000E4
:1000700026C0000024C0000022C0000020C00000F4
:100080001EC000001CC0000011241FBECFEFCDBF5A
:10009000DFE7DEBF11E6A0E0B0E6E6E3FEE002C087
:1000A00005900D92A032B107D9F725E6A0E2B1E69E
:1000B00001C01D92A035B207E1F72BD097C6A0CFA3
:1000C000CF93DF9300D0CDB7DEB789E190E01982FE
:1000D0001A8229813A81283E334038F00197B9F7D6
:1000E0000F900F90DF91CF910895000029813A8100
:1000F0002F5F3F4F29833A83ECCF80E480936604DF
:10010000809362048FD288ED91E084BF90930001C8
:10011000FFCF809140008CBB9FEF90934000909167
:100120001001906428ED24BF9093100184FF34C027
:100130001092506510925165C0E4DFE18091680033
:1001400098ED837C846294BF8093680080E094BFC4
:10015000809361008091650081FFFCCF2FD2AFD2E8
:1001600082D3C0932061D093216180E480936104A5
:100170008093660451D210E4C0E0D0E008D1A0D250
:1001800096D321968091206190912161C817D9075B
:10019000A8F310936704F0CF82FF25C080915065CB
:1001A000909151658D399B4639F4109250651092AB
:1001B0005165C0E8DEE3C2CF8DE99BE680935065D0
:1001C0009093516580E480936104C0E4DAE0C093C9
:1001D000650476DFC093660473DFD150C1F7C09326
:1001E0006604C09362041092506510925165E0E07D
:1001F000F0E185919591C0E0DDE7019609F49ECF8D
:10020000F89480E4809366048093620480911001E6
:1002100098ED8F7B94BF809310011092000C109288
:10022000010C80910110806394BF80930110E0E085
:10023000F8E0099480910B0C82FDFCCF0895E6E074
:10024000F2E681A1846081A381A5846081A71092D8
:100250002861109229610895CF939B014617570793
:1002600008F49A01A9012434310510F043E450E068
:10027000FC01840F951FAAEBB1E6E817F90719F501
:100280008AEB91E6809332629093336240933062BE
:1002900050933162109234621092356283E42134BB
:1002A000310508F083E780932F62C4DFCAE6C0936C
:1002B000420CC0DFC093400C81E080932861109213
:1002C0002961CF91089561916D93D7CFE6E0F2E671
:1002D00012A613A616A617A683E481A7ABDF8AE6AB
:1002E0008093420C83E080932861109229610895E5
:1002F000E6E0F2E682E291E0DF019C011D922150EE
:100300003040E1F783E481A32EEF31E624A335A347
:1003100010A281A78AEB91E684A795A782E080A727
:1003200091E891AF2AEA31E624AF35AF80AF93E888
:10033000909347622AE631E620934A6230934B62FB
:100340001092466290935F622AE231E620936262E5
:100350003093636280935E620895B8CF7DCFE6E00C
:10036000F2E684A795A712A613A666A777A783E649
:1003700081A760DF8AE68093400C82E08093286149
:100380001092296181E080932561089558CFCF9321
:10039000DF9380910A0CC0910B0C84FF11C0109266
:1003A000030CA6DF10922861109229611092266139
:1003B000109227611092256160D180E180930A0C30
:1003C000C0FF17C083E48093276280932F6232DFDF
:1003D000D0E1D093400C2EDFD093420C8091FE618F
:1003E000807609F1803209F49AC029DF81E0809398
:1003F0000B0CC5FFD4C080912E6285FF99C01ADF17
:1004000080E28093420C8091286190912961813033
:10041000910509F488C0059709F4C4C010922861B9
:100420001092296185C0E091FF61EC30F0F6F0E0B8
:10043000E850F94FCEC42091006230910162832FC1
:1004400090E08230910589F18330910539F0019770
:1004500061F662E170E08DEB90E61BC0822F90E0C8
:100460002230E9F08330910538F4892B69F464E097
:1004700070E086E790E60DC009F0B7CF60910760A5
:1004800070E088E090E605C06091576070E088E514
:1004900090E64091046250910562DEDEA7CF609144
:1004A0001E6070E08FE190E6F4CF63E470E08AE7CD
:1004B00090E6EFCF809100628F778093276106DF0F
:1004C00085E0809328611092296190CF8091266108
:1004D00080932261409104625091056261E070E076
:1004E00082E291E6DACF8091006280932661EEDEAF
:1004F000A1DE82E08093480C79CF109223611092A4
:100500002461409104625091056262E070E083E2F0
:1005100091E6C3CFDBDE6ACF10922261DBCF8EEF94
:1005200091E686D063CF84E08093286110922961A0
:100530008091266285FF12C07DDE80E28093400CB0
:100540008091286190912961029799F580912561A8
:10055000811519F0109225618AD0B8DE80913E6233
:1005600085FF04C067DE80E28093460C809146627E
:1005700085FF09C05FDE80E28093480C809148626D
:10058000909149628BD080915E6285FF05C052DEFA
:1005900080E280934E0C90D080E280930B0CDF9130
:1005A000CF910895809127618093030C1092276169
:1005B00035CF1092286110922961D0CF80916800C8
:1005C0008C7B826498ED94BF8093680081E0809377
:1005D000060F8FE697E10197F1F700C0000088DE73
:1005E00086E292E68093060C9093070C1092080C1A
:1005F0001092090C83E88093000C80E492E4AFE051
:10060000B0E02091850020FD04C00197A040B040DB
:10061000C1F71092010C0895E0E0FCE08181816057
:1006200081830895E0E0FCE081818E7F81830895DD
:10063000FC019181943230F49232C0F4903219F07E
:10064000913269F0A3CE868197810797D9F781E02F
:1006500080932F6367E070E080E090E680CE468173
:10066000578167E070E080E090E678CE76CE8091AA
:100670002F63811110922F63089510922D631092B1
:100680002E6310922B6310922C6310922A631092A7
:1006900028631092296310922F6308958134910585
:1006A00010F080E490E080932D6390932E6310927D
:1006B0002B6310922C63089510922A630895DDCF66
:1006C00080912D6390912E63892BF1F020912B6303
:1006D00030912C6380912D6390912E6328173907F8
:1006E00098F010922D6310922E6310922B6310924B
:1006F0002C63109248621092496280910B0C82FD2B
:10070000FCCF82E08093480C80912A63811120C045
:100710008091286390912963892BD1F080915E624A
:1007200081FF16C080912863909129638093606255
:100730009093616280910B0C82FDFCCF82E08093EC
:100740004E0C81E080932A631092286310922963F3
:10075000089520912B6330912C6380912D639091AB
:100760002E632817390788F480912B6390912C63AE
:100770009C012F5F3F4F20932B6330932C6386594E
:100780009E49FC01808190E008958FEF9FEF0895CE
:10079000CF93DF930F92CDB7DEB789838091286323
:1007A0009091296380349105B0F4809128639091F1
:1007B00029639C012F5F3F4F209328633093296367
:1007C000865D9E492981FC0120830F90DF91CF91A6
:1007D000089576DFDCDD80912A638111FACF809164
:1007E0002863909129638034910598F7DECF80913A
:1007F000286390912963892B89F480912A63811160
:100800000DC008955DDFC3DD80912A63811106C0AC
:100810008091286390912963892B01F180912A634B
:100820008111F0CF8091286390912963892B51F336
:1008300080912863909129638093606290936162B4
:1008400080910B0C82FDFCCF82E080934E0C81E006
:1008500080932A631092286310922963089584E19B
:1008600097DF80E195CF10924E6510924F65109200
:100870004B6510924C6510924A6510923565109246
:100880003365109234651092326510923063109285
:100890003163E6E3F5E684E1DF011D928A95E9F72D
:1008A00040E052E06FEF70E082E393E698C28F92EF
:1008B0009F92AF92BF92EF92FF920F931F93CF93AD
:1008C000DF9300D000D0CDB7DEB702E010E041DF0B
:1008D00097FF0EC02496CDBFDEBFDF91CF911F9151
:1008E0000F91FF90EF90BF90AF909F908F900895E1
:1008F000482F20914E6530914F652330310509F422
:100900003FC148F52130310509F47AC02230310564
:1009100009F04EC0803209F0CFC0E0914D65E03F54
:1009200009F08FC0809132658F7D863409F07AC0DE
:10093000209133653091346560914B6570914C65C1
:1009400080E090E042E353E66CD189DF10924E657F
:1009500010924F65BCCF2430310509F43DC12530DC
:10096000310509F0B4CFE091356591E09E0F909389
:100970003565F0E0EA5CFA49808380914A658150F0
:1009800080934A658111A3CF809136659091376538
:100990009827892798278093336590933465209111
:1009A0003865209332658130924070F481EF2CC11C
:1009B00080934D658053863438F4E82FF0E0EE5292
:1009C000FF4980818E3F29F400934E6510934F6557
:1009D0007ECF70F01092356583E080934A6544368F
:1009E00029F480934E6510924F6571CF85E0F9CF61
:1009F000811551F31092356580934A6581E0F1CFFE
:100A0000E091356591E09E0F90933565F0E0EA5CEA
:100A1000FA49808380914A65815080934A658115A7
:100A200099F255CF853409F090CF409133655091BC
:100A3000346562E373E680914B6590914C6589D192
:100A400084CFE13F81F584E1A3DE80904B659090F7
:100A50004C65A12CB12C7501809133659091346562
:100A6000E816F90618F080E193DE70CF80913265C8
:100A70008F7D863461F4B401C5016E0D7F1D811D2B
:100A8000911D53D185DE2FEFE21AF20AE5CF8534AE
:100A900041F480914B6590914C658E0D9F1D91D1D5
:100AA000F1CF8FEFEFCFE73580F4E03438F4E03367
:100AB00009F44BCFE133B1F085E1D6CFE054E73113
:100AC000D8F7F0E0EC5FF84F84C1E537A9F784E18F
:100AD0005FDE809180105CDE8091811059DE809114
:100AE000821020C084E154DE98E1E92E91E6F92ECF
:100AF000F7014FEFE41AF40A80814ADE8FE1E8162D
:100B000081E6F806A9F7AFCFE0913665E05883E0BB
:100B1000F82EE33020F4F0E0E153FF49F08084E167
:100B200037DE8F2D35DE9FCF84E132DE80E130DE8F
:100B30005EDE19821A821B821C8289819A81AB81B6
:100B4000BC8180349D40A340B10508F0D6DA89818C
:100B50009A81AB81BC810196A11DB11D89839A83C5
:100B6000AB83BC83EACF80913665909137658093E3
:100B70004B6590934C65E9CE84E10ADE80E0D2CFEC
:100B8000E091356591E09E0F90933565F0E0EA5C69
:100B9000FA49808380914A65815080934A6581112A
:100BA00096CE8091366590913765382F292F909396
:100BB00033658093346540913865409332652130C8
:100BC000324008F001CF1092306310923163892BCC
:100BD00009F4FACE84E005CF20913063309131637F
:100BE000A9014F5F5F4F40933063509331632E5C98
:100BF0003C49F901808380913365909134654817B1
:100C0000590708F464CE80EF80934D6582E0E9CE09
:100C10009091061091FDFCCF9DE994BF8093001048
:100C20000895BF92CF92DF92EF92FF920F931F939E
:100C3000CF93DF936A0170318105910508F46BC091
:100C40002115310509F467C0E9012130324010F067
:100C5000C0E0D2E02091011031E0703881059105AB
:100C600008F430E0F32EF29480EFF8222F7C322F3C
:100C70003F2928ED24BF309301108B011068E02E2E
:100C8000B12E88E0C5DF8FEFF801808380910610D8
:100C900081FDFCCF81E0BCDF809101108F7CF82AC0
:100CA00088ED84BFF092011082E0B2DFD60181E0CE
:100CB00090E08C179D07F0F0CE018E7F8C179D077A
:100CC00070F4EC01C00FD11FC80ED91EF60180814F
:100CD0009FEF888399838091061081FDFCCF81E08E
:100CE000DF91CF911F910F91FF90EF90DF90CF9008
:100CF000BF908ECF11964C912E91342FEE2DFB2D5F
:100D0000219331932091061021FDFCCF029612967B
:100D1000EE2EBF2ECECFDF91CF911F910F91FF907E
:100D2000EF90DF90CF90BF9008953091011021E0B7
:100D300070388105910508F420E03F7C20FD30618A
:100D400028ED24BF30930110AB015068FA01808177
:100D500008950F931F93911131C08A0120E030E074
:100D6000080F191F211D311D0130114021053105CA
:100D700010F140E051E0481B590BFC01FC5E8091F2
:100D800006108370E1F78DE984BF83E18093001042
:100D9000DB01460F571F8D9180838091061080FDE7
:100DA000FCCF3196A417B507B1F78DE984BF81E078
:100DB0008093001003C041155105F9F61F910F9162
:100DC0000895911104C0FC01FC5E808108958FEFAD
:100DD0000895EE0FFF1F0590F491E02D0994DC01BA
:100DE00001C06D9341505040E0F70895F894FFCF53
:100DF0007D028A02F5018A02F5015A021B02F50101
:100E0000660273028C028A02A5048405A5045C05AF
:100E10005C05A5045C055C055C055C055C055C0582
:100E20005C055C055C055C05A5049405A5045C05F2
:060E30005C05B305BC05E2
:100E360000C2010000000816160342004C003000F4
:100E460030003000300030003000300031003838DB
:100E560003570061007A0061006D006F006E006F3D
:100E66000020005400730075007200750067006969
:100E760000200042006F006F0074006C006F00617C
:100E8600006400650072001E1E0357006F007200AA
:100E96006B00730068006F00700020004100730053
:100EA60061006800690004030904090243000201A5
:100EB600008032090400000102020100052400102E
:100EC600010524010001042402020524060001078D
:100ED60005810310004009040100020A0000000712
:100EE60005020240000007058302400000120100CF
:100EF600020200004009120700000101020301017D
:100F060008020000FEFEFEFEFEFEFEFEFEFEFEFEE9
:100F1600FEFE020114FEFE05FEFEFEFEFEFEFEFEC7
:100F2600FEFE000000FEFE0204FEFEFEFEFEFEFECB
:100F3600FEFEFEFEFEFEFFFEFEFEFEFEFEFEFEFECA
:100F4600FEFEFEFEFEFEFF004156522053544B00AD
:040FFA00F8950895C9
:020FFE00011AD6
:00000001FF
