:1000000043C000005CC000005AC0000058C000009F
:1000100056C0000054C0000052C0000050C0000094
:100020004EC000004CC000004AC0000048C00000A4
:1000300046C0000044C0000042C0000040C00000B4
:100040003EC000003CC000003AC0000038C00000C4
:1000500036C0000034C0000032C0000030C00000D4
:100060002EC000002CC000002AC0000028C00000E4
:1000700026C0000024C0000022C0000020C00000F4
:100080001EC000001CC0000011241FBECFEFCDBF5A
:10009000DFE7DEBF11E6A0E0B0E6E2E4FEE002C08A
:1000A00005900D92AC31B107D9F725E6ACE1B1E688
:1000B00001C01D92A834B207E1F72BD09DC6A0CF96
:1000C000CF93DF9300D0CDB7DEB789E190E01982FE
:1000D0001A8229813A81283E334038F00197B9F7D6
:1000E0000F900F90DF91CF910895000029813A8100
:1000F0002F5F3F4F29833A83ECCF80E280936504E2
:100100008093620495D288ED91E084BF90930001C2
:10011000FFCF809140008CBB9FEF90934000909167
:100120001001906428ED24BF9093100184FF34C027
:100130001092486510924965C0E4DFE18091680043
:1001400098ED837C846294BF8093680080E094BFC4
:10015000809361008091650081FFFCCF36D2B5D2DB
:1001600088D3C0931C61D0931D6180E280936104A9
:100170008093650457D210E2C0E0D0E00FD1A6D240
:100180009CD3219680911C6190911D61C817D9075D
:10019000A8F310936704F0CF82FF25C080914865D3
:1001A000909149658D399B4639F4109248651092BB
:1001B0004965C0E8DEE3C2CF8DE99BE680934865E0
:1001C0009093496580E280936104C0E2DAE0C093D5
:1001D000660476DFC093650473DFD150C1F7C09326
:1001E0006504C09362041092486510924965E0E08E
:1001F000F0E185919591C0E0DDE7019609F49ECF8D
:10020000F89480E2809365048093620480911001E9
:1002100098ED8F7B94BF809310011092000C109288
:10022000010C80910110806394BF80930110E0E085
:10023000F8E0099480910B0C82FDFCCF0895EEEF5D
:10024000F1E681A1846081A381A5846081A71092D9
:100250002461109225610895CF939B01461757079B
:1002600008F49A012134310550F5FC01820F931FE7
:10027000A6EBB1E6E817F907F9F486EB91E680936F
:100280002A6290932B622093286230932962109205
:100290002C6210922D6283E480932762CBDFCAE642
:1002A000C093420CC7DFC093400C81E0809324616F
:1002B00010922561CF91089541914D93DBCF8093AA
:1002C0002A6290932B6220932862309329621092C5
:1002D0002C6210922D6283E7DFCFEEEFF1E612A6DB
:1002E00013A616A617A683E481A7A4DF8AE6809347
:1002F000420C83E080932461109225610895EEEF13
:10030000F1E682E291E0DF019C011D922150304034
:10031000E1F783E481A326EF31E624A335A310A2FD
:1003200081A786EB91E684A795A782E080A791E854
:1003300091AF26EA31E624AF35AF80AF93E89093D2
:100340003F6226E631E62093426230934362109288
:100350003E629093576226E231E620935A623093D0
:100360005B62809356620895B8CF76CFEEEFF1E6E8
:1003700084A795A712A613A666A777A783E681A7E9
:1003800059DF8AE68093400C82E0809324611092CA
:10039000256181E080932161089551CFCF93DF9350
:1003A00080910A0CC0910B0C84FF11C01092030CB9
:1003B000A6DF1092246110922561109222611092A2
:1003C0002361109221615FD180E180930A0CC0FF0C
:1003D00017C083E480931F62809327622BDFD0E1F4
:1003E000D093400C27DFD093420C8091F661807649
:1003F00009F1803209F49AC022DF81E080930B0C6E
:10040000C5FFD4C08091266285FF99C013DF80E2CA
:100410008093420C809124619091256181309105F7
:1004200009F488C0059709F4C4C0109224611092A1
:10043000256185C0E091F761EC30F0F6F0E0E25024
:10044000F94FCDC42091F8613091F961832F90E08C
:100450008230910589F18330910539F0019761F679
:1004600062E170E089EB90E61BC0822F90E02230C1
:10047000E9F08330910538F4892B69F464E070E089
:1004800082E790E60DC009F0B7CF6091076070E099
:1004900088E090E605C06091536070E084E590E6E6
:1004A0004091FC615091FD61D7DEA7CF60911E6045
:1004B00070E08FE190E6F4CF63E470E086E790E6C9
:1004C000EFCF8091F8618F778093236106DF85E01D
:1004D000809324611092256190CF80912261809356
:1004E0001E614091FC615091FD6161E070E08EE120
:1004F00091E6DACF8091F86180932261EEDE9ADE98
:1005000082E08093480C79CF10921F611092206195
:100510004091FC615091FD6162E070E08FE191E6F5
:10052000C3CFDBDE6ACF10921E61DBCF86EF91E690
:1005300085D063CF84E080932461109225618091FF
:100540001E6285FF12C076DE80E28093400C8091AF
:10055000246190912561029799F58091216181151F
:1005600019F01092216189D0B8DE8091366285FF42
:1005700004C060DE80E28093460C80913E6285FF7D
:1005800009C058DE80E28093480C809140629091CF
:1005900041628AD08091566285FF05C04BDE80E2C1
:1005A00080934E0C8FD080E280930B0CDF91CF9123
:1005B0000895809123618093030C1092236135CFBD
:1005C0001092246110922561D0CF809168008C7BBD
:1005D000826498ED94BF809368001092060F8FE6B6
:1005E00097E10197F1F700C0000089DE8EE192E605
:1005F0008093060C9093070C1092080C1092090C33
:1006000083E88093000C80E492E4AFE0B0E02091B6
:10061000850020FD04C00197A040B040C1F71092B2
:10062000010C0895E0E0FCE0818181608183089500
:10063000E0E0FCE081818E7F81830895FC0191815F
:10064000943230F49232C0F4903219F0913269F061
:10065000A4CE868197810797D9F781E0809327639D
:1006600067E070E080E090E681CE4681578167E0E8
:1006700070E080E090E679CE77CE8091276381119B
:1006800010922763089510922563109226631092AA
:1006900023631092246310922263109220631092BD
:1006A00021631092276308958134910510F080E44E
:1006B00090E08093256390932663109223631092B9
:1006C00024630895109222630895DDCF80912563FD
:1006D00090912663892BF1F020912363309124635C
:1006E00080912563909126632817390798F010921E
:1006F0002563109226631092236310922463109254
:1007000040621092416280910B0C82FDFCCF82E02E
:100710008093480C80912263811120C080912063D6
:1007200090912163892BD1F08091566281FF16C090
:1007300080912063909121638093586290935962D5
:1007400080910B0C82FDFCCF82E080934E0C81E007
:100750008093226310922063109221630895209168
:100760002363309124638091256390912663281739
:10077000390788F480912363909124639C012F5F53
:100780003F4F20932363309324638A599E49FC0191
:10079000808190E008958FEF9FEF0895CF93DF93CE
:1007A0000F92CDB7DEB7898380912063909121634A
:1007B00080349105B0F480912063909121639C0175
:1007C0002F5F3F4F20932063309321638A5D9E49C2
:1007D0002981FC0120830F90DF91CF91089576DF6E
:1007E000DDDD809122638111FACF809120639091A9
:1007F00021638034910598F7DECF8091206390913A
:100800002163892B89F48091226381110DC00895A1
:100810005DDFC4DD80912263811106C08091206379
:1008200090912163892B01F1809122638111F0CF96
:100830008091206390912163892B51F380912063F3
:1008400090912163809358629093596280910B0C30
:1008500082FDFCCF82E080934E0C81E08093226386
:100860001092206310922163089584E197DF80E164
:1008700095CF10924665109247651092436510928D
:1008800044651092426510922D6510922B6510926E
:100890002C6510922A651092286310922963EEE26B
:1008A000F5E684E1DF011D928A95E9F740E052E028
:1008B0006FEF70E08AE293E698C28F929F92AF92B8
:1008C000BF92EF92FF920F931F93CF93DF9300D0CD
:1008D00000D0CDB7DEB702E010E041DF97FF0EC0D9
:1008E0002496CDBFDEBFDF91CF911F910F91FF9076
:1008F000EF90BF90AF909F908F900895482F2091D8
:100900004665309147652330310509F43FC148F50C
:100910002130310509F47AC02230310509F04EC08A
:10092000803209F0CFC0E0914565E03F09F08FC00B
:1009300080912A658F7D863409F07AC020912B65DD
:1009400030912C65609143657091446580E090E042
:100950004AE253E66CD189DF1092466510924765F2
:10096000BCCF2430310509F43DC12530310509F0F3
:10097000B4CFE0912D6591E09E0F90932D65F0E04E
:10098000E25DFA498083809142658150809342659F
:100990008111A3CF80912E6590912F65982789278B
:1009A000982780932B6590932C6520913065209338
:1009B0002A658130924070F481EF2CC180934565A7
:1009C0008053863438F4E82FF0E0E253FF49808109
:1009D0008E3F29F400934665109347657ECF70F0F3
:1009E00010922D6583E080934265443629F480930C
:1009F00046651092476571CF85E0F9CF811551F3B7
:100A000010922D658093426581E0F1CFE0912D65D4
:100A100091E09E0F90932D65F0E0E25DFA498083AE
:100A200080914265815080934265811599F255CF3E
:100A3000853409F090CF40912B6550912C656AE286
:100A400073E6809143659091446589D184CFE13FFD
:100A500081F584E1A3DE8090436590904465A12CEC
:100A6000B12C750180912B6590912C65E816F906E3
:100A700018F080E193DE70CF80912A658F7D8634F7
:100A800061F4B401C5016E0D7F1D811D911D53D10F
:100A900085DE2FEFE21AF20AE5CF853441F480912A
:100AA0004365909144658E0D9F1D91D1F1CF8FEFDD
:100AB000EFCFE73580F4E03438F4E03309F44BCF7E
:100AC000E133B1F085E1D6CFE054E731D8F7F0E07B
:100AD000E65FF84F84C1E537A9F784E15FDE8091D6
:100AE00080105CDE8091811059DE8091821020C0E0
:100AF00084E154DE94E1E92E91E6F92EF7014FEFFF
:100B0000E41AF40A80814ADE8BE1E81681E6F806F1
:100B1000A9F7AFCFE0912E65E05883E0F82EE330DF
:100B200020F4F0E0E553FF49F08084E137DE8F2DBB
:100B300035DE9FCF84E132DE80E130DE5EDE198279
:100B40001A821B821C8289819A81AB81BC8180348C
:100B50009D40A340B10508F0D0DA89819A81AB812C
:100B6000BC810196A11DB11D89839A83AB83BC838F
:100B7000EACF80912E6590912F6580934365909385
:100B80004465E9CE84E10ADE80E0D2CFE0912D65B4
:100B900091E09E0F90932D65F0E0E25DFA4980832D
:100BA00080914265815080934265811196CE8091FB
:100BB0002E6590912F65382F292F90932B65809368
:100BC0002C654091306540932A652130324008F011
:100BD00001CF1092286310922963892B09F4FACE71
:100BE00084E005CF2091286330912963A9014F5FEC
:100BF0005F4F4093286350932963265D3C49F90178
:100C0000808380912B6590912C654817590708F4D3
:100C100064CE80EF8093456582E0E9CE9091061026
:100C200091FDFCCF9DE994BF809300100895BF9281
:100C3000CF92DF92EF92FF920F931F93CF93DF93A8
:100C40006A0170318105910508F46BC021153105E9
:100C500009F467C0E9012130324010F0C0E0D2E071
:100C60002091011031E070388105910508F430E0E1
:100C7000F32EF29480EFF8222F7C322F3F2928EDBB
:100C800024BF309301108B011068E02EB12E88E054
:100C9000C5DF8FEFF80180838091061081FDFCCFC6
:100CA00081E0BCDF809101108F7CF82A88ED84BF41
:100CB000F092011082E0B2DFD60181E090E08C1763
:100CC0009D07F0F0CE018E7F8C179D0770F4EC012C
:100CD000C00FD11FC80ED91EF60180819FEF8883F7
:100CE00099838091061081FDFCCF81E0DF91CF9147
:100CF0001F910F91FF90EF90DF90CF90BF908ECF1C
:100D000011964C912E91342FEE2DFB2D2193319382
:100D10002091061021FDFCCF02961296EE2EBF2EDA
:100D2000CECFDF91CF911F910F91FF90EF90DF9089
:100D3000CF90BF9008953091011021E07038810567
:100D4000910508F420E03F7C20FD306128ED24BFB0
:100D500030930110AB015068FA01808108950F9320
:100D60001F93911131C08A0120E030E0080F191F54
:100D7000211D311D013011402105310510F140E0E8
:100D800051E0481B590BFC01FC5E809106108370FA
:100D9000E1F78DE984BF83E180930010DB01460F0A
:100DA000571F8D9180838091061080FDFCCF319676
:100DB000A417B507B1F78DE984BF81E080930010D7
:100DC00003C041155105F9F61F910F910895911136
:100DD00004C0FC01FC5E808108958FEF0895EE0F42
:100DE000FF1F0590F491E02D0994DC0101C06D9383
:100DF00041505040E0F70895F894FFCF84029102EB
:100E0000FC019102FC0161022202FC016D027A02E6
:100E100093029102AB048A05AB0462056205AB0440
:100E2000620562056205620562056205620562058A
:100E300062056205AB049A05AB0462056205B9055B
:020E4000C205E9
:100E420000C2010000000816160342004C003000E8
:100E520030003000300030003000300031003434D7
:100E620003570061007A0061006D006F006E006F31
:100E72000020005400610063006800690020004205
:100E8200006F006F0074006C006F00610064006509
:100E92000072001E1E0357006F0072006B00730089
:100EA20068006F007000200041007300610068005C
:100EB20069000403090409024300020100803209A7
:100EC20004000001020201000524001001052401B2
:100ED2000001042402020524060001070581031013
:100EE200004009040100020A000000070502024056
:100EF2000000070583024000001201000202000008
:100F0200400912050000010102030101080200006C
:100F1200FEFEFEFEFEFEFEFEFEFEFEFEFEFE0201E8
:100F220014FEFE05FEFEFEFEFEFEFEFEFEFE0000BE
:100F320000FEFE0204FEFEFEFEFEFEFEFEFEFEFEC3
:100F4200FEFEFFFEFEFEFEFEFEFEFEFEFEFEFEFEBE
:0C0F5200FEFEFF004156522053544B009D
:00000001FF
