:1000000043C000005CC000005AC0000058C000009F
:1000100056C0000054C0000052C0000050C0000094
:100020004EC000004CC000004AC0000048C00000A4
:1000300046C0000044C0000042C0000040C00000B4
:100040003EC000003CC000003AC0000038C00000C4
:1000500036C0000034C0000032C0000030C00000D4
:100060002EC000002CC000002AC0000028C00000E4
:1000700026C0000024C0000022C0000020C00000F4
:100080001EC000001CC0000011241FBECFEFCDBF5A
:10009000DFE7DEBF10E7A0E0B0E7E9E4FFE002C081
:1000A00005900D92A830B107D9F724E7A8E0B0E792
:1000B00001C01D92A833B207E1F72BD096C6A0CF9E
:1000C000CF93DF9300D0CDB7DEB789E190E01982FE
:1000D0001A8229813A81283E334038F00197B9F7D6
:1000E0000F900F90DF91CF910895000029813A8100
:1000F0002F5F3F4F29833A83ECCF80E180936504E3
:10010000809362048ED288ED91E084BF90930001C9
:10011000FFCF809140008CBB9FEF90934000909167
:100120001001906428ED24BF9093100184FF34C027
:100130001092387410923974C0E4DFE18091680045
:1001400098ED837C846294BF8093680080E094BFC4
:10015000809361008091650081FFFCCF2FD2AED2E9
:1001600081D3C0930870D093097080E180936104BB
:100170008093650450D210E1C0E0D0E008D19FD256
:1001800095D321968091087090910970C817D9076E
:10019000A8F310936704F0CF82FF25C080913874D4
:1001A000909139748D399B4639F4109238741092BD
:1001B0003974C0E8DEE3C2CF8DE99BE680933874E2
:1001C0009093397480E180936104C0E1DAE0C093D8
:1001D000660476DFC093650473DFD150C1F7C09326
:1001E0006504C09362041092387410923974E0E090
:1001F000F0E185919591C0E0DDE7019609F49ECF8D
:10020000F89480E1809365048093620480911001EA
:1002100098ED8F7B94BF809310011092000C109288
:10022000010C80910110806394BF80930110E0E085
:10023000F8E0099480910B0C82FDFCCF0895EEEE5E
:10024000F0E781A1846081A381A5846081A71092D9
:100250001070109211700895CF939B0146175707A5
:1002600008F49A01A9012434310510F043E450E068
:10027000FC01840F951FA2EAB0E7E817F90719F50A
:1002800082EA90E780931A7190931B7140931871E2
:100290005093197110921C7110921D7183E42134D6
:1002A000310508F083E780931771C4DFCAE6C09375
:1002B000420CC0DFC093400C81E08093107010921C
:1002C0001170CF91089561916D93D7CFEEEEF0E765
:1002D00012A613A616A617A683E481A7ABDF8AE6AB
:1002E0008093420C83E080931070109211700895F7
:1002F000EEEEF0E782E291E0DF019C011D922150D9
:100300003040E1F783E481A326EE30E724A335A350
:1003100010A281A782EA90E784A795A782E080A730
:1003200091E891AF22E930E724AF35AF80AF93E891
:1003300090932F7122E530E720933271309333711F
:1003400010922E719093477122E130E720934A7109
:1003500030934B71809346710895B8CF7DCFEEEE08
:10036000F0E784A795A712A613A666A777A783E64A
:1003700081A760DF8AE68093400C82E08093107052
:100380001092117081E080930D70089558CFCF9333
:10039000DF9380910A0CC0910B0C84FF11C0109266
:1003A000030CA6DF109210701092117010920E7054
:1003B00010920F7010920D705FD180E180930A0C43
:1003C000C0FF17C083E480930F718093177132DFF1
:1003D000D0E1D093400C2EDFD093420C8091E67098
:1003E000807609F1803209F49AC029DF81E0809398
:1003F0000B0CC5FFD4C08091167185FF99C01ADF20
:1004000080E28093420C8091107090911170813045
:10041000910509F488C0059709F4C4C010921070C2
:100420001092117085C0E091E770EC30F0F6F0E0CA
:10043000E950F94FCDC42091E8703091E970832FD5
:1004400090E08230910589F18330910539F0019770
:1004500061F662E170E086EE9EE81BC0822F90E0BC
:100460002230E9F08330910538F4892B69F464E097
:1004700070E08FE99EE80DC009F0B7CF6091348E2F
:1004800070E085E39EE805C06091808E70E081E8B1
:100490009EE84091EC705091ED70DEDEA7CF609148
:1004A0004B8E70E08CE49EE8F4CF63E470E083EA66
:1004B0009EE8EFCF8091E8708F7780930F7006DF12
:1004C00085E0809310701092117090CF80910E7023
:1004D00080930A704091EC705091ED7061E070E093
:1004E0008AE090E7DACF8091E87080930E70EEDEBC
:1004F000A1DE82E08093480C79CF10920B701092AD
:100500000C704091EC705091ED7062E070E08BE007
:1005100090E7C3CFDBDE6ACF10920A70DBCF86EEA6
:1005200090E785D063CF84E08093107010921170B3
:1005300080910E7185FF12C07DDE80E28093400CB9
:100540008091107090911170029799F580910D70C3
:10055000811519F010920D7089D0B8DE8091267146
:1005600085FF04C067DE80E28093460C80912E7187
:1005700085FF09C05FDE80E28093480C8091307176
:10058000909131718AD08091467185FF05C052DE0D
:1005900080E280934E0C8FD080E280930B0CDF9131
:1005A000CF91089580910F708093030C10920F707B
:1005B00035CF1092107010921170D0CF80916800DA
:1005C0008C7B826498ED94BF809368001092060F34
:1005D0008FE697E10197F1F700C0000089DE8EE019
:1005E00091E78093060C9093070C1092080C1092E0
:1005F000090C83E88093000C80E492E4AFE0B0E063
:100600002091850020FD04C00197A040B040C1F7B3
:100610001092010C0895E0E0FCE08181816081830B
:100620000895E0E0FCE081818E7F81830895FC01E4
:100630009181943230F49232C0F4903219F09132B8
:1006400069F0A4CE868197810797D9F781E08093DE
:10065000177267E070E080E090E781CE46815781B5
:1006600067E070E080E090E779CE77CE80911772F6
:1006700081111092177208951092157210921672CD
:1006800010921372109214721092127210921072D1
:10069000109211721092177208958134910510F022
:1006A00080E490E08093157290931672109213720A
:1006B000109214720895109212720895DDCF8091F5
:1006C000157290911672892BF1F02091137230916E
:1006D000147280911572909116722817390798F04C
:1006E0001092157210921672109213721092147268
:1006F000109230711092317180910B0C82FDFCCF01
:1007000082E08093480C80911272811120C0809108
:10071000107290911172892BD1F08091467181FFF6
:1007200016C08091107290911172809348719093CD
:10073000497180910B0C82FDFCCF82E080934E0CBE
:1007400081E08093127210921072109211720895CB
:1007500020911372309114728091157290911672DB
:100760002817390788F480911372909114729C01B4
:100770002F5F3F4F20931372309314728E5A9F480D
:10078000FC01808190E008958FEF9FEF0895CF9353
:10079000DF930F92CDB7DEB789838091107290916D
:1007A000117280349105B0F48091107290911172A1
:1007B0009C012F5F3F4F20931072309311728E5E19
:1007C0009F482981FC0120830F90DF91CF910895EC
:1007D00076DFDDDD809112728111FACF8091107287
:1007E000909111728034910598F7DECF809110724C
:1007F00090911172892B89F48091127281110DC030
:1008000008955DDFC4DD80911272811106C0809170
:10081000107290911172892B01F1809112728111E5
:10082000F0CF8091107290911172892B51F38091C9
:1008300010729091117280934871909349718091D8
:100840000B0C82FDFCCF82E080934E0C81E0809304
:1008500012721092107210921172089584E197DF53
:1008600080E195CF109236741092377410923374E1
:10087000109234741092327410921D7410921B7482
:1008800010921C7410921A741092187210921972AD
:10089000EEE1F4E784E1DF011D928A95E9F740E09B
:1008A00052E06FEF70E08AE192E798C28F929F92D8
:1008B000AF92BF92EF92FF920F931F93CF93DF936C
:1008C00000D000D0CDB7DEB702E010E041DF97FFE7
:1008D0000EC02496CDBFDEBFDF91CF911F910F9147
:1008E000FF90EF90BF90AF909F908F900895482F0A
:1008F00020913674309137742330310509F43FC1AB
:1009000048F52130310509F47AC02230310509F06B
:100910004EC0803209F0CFC0E0913574E03F09F05D
:100920008FC080911A748F7D863409F07AC020912F
:100930001B7430911C74609133747091347480E036
:1009400090E04AE152E76CD189DF10923674109240
:100950003774BCCF2430310509F43DC12530310551
:1009600009F0B4CFE0911D7491E09E0F90931D7437
:10097000F0E0E25EFB488083809132748150809386
:1009800032748111A3CF80911E7490911F749827A7
:100990008927982780931B7490931C74209120744E
:1009A00020931A748130924070F481EF2CC18093AF
:1009B00035748053863438F4E82FF0E0E550F14781
:1009C00080818E3F29F400933674109337747ECF64
:1009D00070F010921D7483E080933274443629F4D1
:1009E000809336741092377471CF85E0F9CF8115FA
:1009F00051F310921D748093327481E0F1CFE09135
:100A00001D7491E09E0F90931D74F0E0E25EFB4830
:100A1000808380913274815080933274811599F271
:100A200055CF853409F090CF40911B7450911C74C0
:100A30006AE172E7809133749091347489D184CFE4
:100A4000E13F81F584E1A3DE8090337490903474AB
:100A5000A12CB12C750180911B7490911C74E81627
:100A6000F90618F080E193DE70CF80911A748F7DC3
:100A7000863461F4B401C5016E0D7F1D811D911D89
:100A800053D185DE2FEFE21AF20AE5CF853441F427
:100A900080913374909134748E0D9F1D91D1F1CF5C
:100AA0008FEFEFCFE73580F4E03438F4E03309F42A
:100AB0004BCFE133B1F085E1D6CFE054E731D8F741
:100AC000F0E0ED5FF84F84C1E537A9F784E15FDE20
:100AD000809180105CDE8091811059DE80918210BF
:100AE00020C084E154DE91E4E92E9FE8F92EF7015D
:100AF0004FEFE41AF40A80814ADE88E4E8168FE8B2
:100B0000F806A9F7AFCFE0911E74E05883E0F82E05
:100B1000E33020F4F0E0E850F147F08084E137DE84
:100B20008F2D35DE9FCF84E132DE80E130DE5EDE68
:100B300019821A821B821C8289819A81AB81BC81B5
:100B400080349D40A340B10508F0D7DA89819A81AD
:100B5000AB81BC810196A11DB11D89839A83AB83B2
:100B6000BC83EACF80911E7490911F74809333747C
:100B700090933474E9CE84E10ADE80E0D2CFE09134
:100B80001D7491E09E0F90931D74F0E0E25EFB48AF
:100B9000808380913274815080933274811196CE1B
:100BA00080911E7490911F74382F292F90931B747D
:100BB00080931C744091207440931A742130324009
:100BC00008F001CF1092187210921972892B09F453
:100BD000FACE84E005CF2091187230911972A901E4
:100BE0004F5F5F4F4093187250931972265E3D48D5
:100BF000F901808380911B7490911C7448175907E8
:100C000008F464CE80EF8093357482E0E9CE909151
:100C1000061091FDFCCF9DE994BF809300100895CC
:100C2000BF92CF92DF92EF92FF920F931F93CF93D9
:100C3000DF936A0170318105910508F46BC02115BD
:100C4000310509F467C0E9012130324010F0C0E0FD
:100C5000D2E02091011031E070388105910508F44F
:100C600030E0F32EF29480EFF8222F7C322F3F29D0
:100C700028ED24BF309301108B011068E02EB12EB7
:100C800088E0C5DF8FEFF80180838091061081FD39
:100C9000FCCF81E0BCDF809101108F7CF82A88EDC9
:100CA00084BFF092011082E0B2DFD60181E090E0D3
:100CB0008C179D07F0F0CE018E7F8C179D0770F486
:100CC000EC01C00FD11FC80ED91EF60180819FEF25
:100CD000888399838091061081FDFCCF81E0DF91AC
:100CE000CF911F910F91FF90EF90DF90CF90BF9029
:100CF0008ECF11964C912E91342FEE2DFB2D2193FA
:100D000031932091061021FDFCCF02961296EE2E13
:100D1000BF2ECECFDF91CF911F910F91FF90EF901B
:100D2000DF90CF90BF9008953091011021E070388E
:100D30008105910508F420E03F7C20FD306128ED1D
:100D400024BF30930110AB015068FA0180810895EF
:100D50000F931F93911131C08A0120E030E0080FFA
:100D6000191F211D311D013011402105310510F1E0
:100D700040E051E0481B590BFC01FC5E80910610DD
:100D80008370E1F78DE984BF83E180930010DB017C
:100D9000460F571F8D9180838091061080FDFCCFF8
:100DA0003196A417B507B1F78DE984BF81E0809330
:100DB000001003C041155105F9F61F910F910895D8
:100DC000911104C0FC01FC5E808108958FEF0895AD
:100DD000EE0FFF1F0590F491E02D0994DC0101C096
:100DE0006D9341505040E0F70895F894FFCF7D0295
:100DF0008A02F5018A02F5015A021B02F501660218
:100E000073028C028A02A4048305A4045B055B05BB
:100E1000A4045B055B055B055B055B055B055B058A
:100E20005B055B055B05A4049305A4045B055B05FA
:040E3000B205BB0547
:100E340016160342004C0030003000300030003001
:100E440000300030003100343403570061007A0070
:100E540061006D006F006E006F0020004B00750094
:100E64006E0061006900200042006F006F00740092
:100E74006C006F0061006400650072001E1E035761
:100E8400006F0072006B00730068006F0070002038
:100E9400004100730061006800690004030904094B
:100EA4000243000201008032090400000102020131
:100EB4000005240010010524010001042402020598
:100EC4002406000107058103100040090401000203
:100ED4000A000000070502024000000705830240E3
:100EE4000000120100020200004009120900000182
:100EF400010203010108020000FEFEFEFEFEFEFEEA
:100F0400FEFEFEFEFEFEFE020114FEFE05FEFEFED9
:100F1400FEFEFEFEFEFEFE000000FEFE0204FEFEDD
:100F2400FEFEFEFEFEFEFEFEFEFEFEFFFEFEFEFEDC
:100F3400FEFEFEFEFEFEFEFEFEFEFEFF00415652DB
:050F44002053544B0096
:080F490000C2010000000800D5
:040FFA00F8950895C9
:020FFE00011AD6
:00000001FF
