:1000000043C000005CC000005AC0000058C000009F
:1000100056C0000054C0000052C0000050C0000094
:100020004EC000004CC000004AC0000048C00000A4
:1000300046C0000044C0000042C0000040C00000B4
:100040003EC000003CC000003AC0000038C00000C4
:1000500036C0000034C0000032C0000030C00000D4
:100060002EC000002CC000002AC0000028C00000E4
:1000700026C0000024C0000022C0000020C00000F4
:100080001EC000001CC0000011241FBECFEFCDBF5A
:10009000DFE7DEBF10E7A0E0B0E7EEE9FFE002C077
:1000A00005900D92A830B107D9F724E7A8E0B0E792
:1000B00001C01D92A433B207E1F72BD0F1C6A0CF47
:1000C000CF93DF9300D0CDB7DEB78AE190E0019700
:1000D00029F40F900F90DF91CF91089519821A8221
:1000E00029813A81283E334090F7000029813A81E6
:1000F0002F5F3F4F29833A83F3CF80E88093050435
:1001000080930204ABD288ED91E084BF909300010C
:10011000FFCF209140002CBB8FEF80934000809157
:100120001001806490E038ED34BF8093100124FF0B
:1001300034C01092347410923574C0E4DFE18091C1
:100140006800837C846298ED94BF8093680080E0AF
:1001500094BF809361008091650081FFFCCF4AD2FB
:10016000C9D295D3C0930870D093097080E880936A
:100170000104809305046CD210E8D0E0C0E013D1F4
:10018000BAD2A9D321968091087090910970C817AE
:10019000D907A8F310930704F0CF22FF25C0809160
:1001A0003474909135748D399B4639F410923474BF
:1001B00010923574C0E8DEE3C2CF8DE99BE68093F0
:1001C00034749093357480E880930104DAE0C0E8D9
:1001D000C093060475DFC093050472DFD150C1F7E8
:1001E000C0930504C09302041092347410923574C5
:1001F000E0E0F0E185919491C0E0DDE7019609F43B
:100200009ECFF89480E88093050480930204809147
:10021000100128ED8F7B90E024BF80931001109295
:10022000000C1092010C80910110806324BF809318
:100230000110E0E0F8E0099480910B0C82FDFCCF06
:100240000895EAEEF0E781A1846081A381A584602E
:1002500081A710921070109211700895CF939B0196
:100260004617570708F49A01FC01A2EAB0E72134C7
:10027000310580F08093167190931771209314715B
:1002800030931571109218711092197183E717C08D
:1002900081918D93CD01825A904782179307C0F3C5
:1002A00082EA90E7809316719093177120931471EE
:1002B00030931571109218711092197183E4809324
:1002C0001371BADFCAE6C093420CB6DFC093400C8C
:1002D00081E090E08093107090931170CF91089519
:1002E000EAEEF0E712A613A616A617A683E481A7E6
:1002F000A3DF8AE68093420C83E090E08093107045
:10030000909311700895EAEEF0E782E291E0DF0148
:100310009C011D9221503040E1F783E481A322EE3D
:1003200030E724A335A310A281A782EA90E784A72F
:1003300095A782E080A791E891AF22E930E724AF4A
:1003400035AF80AF93E890932B7122E530E720938F
:100350002E7130932F7110922A719093437122E184
:1003600030E720934671309347718093427108952E
:10037000B7CF74CFEAEEF0E784A795A712A613A62D
:1003800066A777A783E681A757DF8AE68093400CAC
:1003900082E090E0809310709093117081E08093E0
:1003A0000D7008954ECFCF93DF9380910A0CC091CA
:1003B0000B0C84FF11C01092030CA5DF109210707B
:1003C0001092117010920E7010920F7010920D70AA
:1003D0006FD180E180930A0CC0FF17C083E4809343
:1003E0000B718093137128DFD0E1D093400C24DF90
:1003F000D093420C8091E270807609F1803209F44A
:10040000A9C01FDF81E080930B0CC5FFE4C0809181
:10041000127185FFA9C010DF80E28093420C8091A9
:100420001070909111708130910509F497C0059773
:1004300009F4D4C0109210701092117095C0E09120
:10044000E370EC30F0F6F0E0E95DFD4F1CC598027A
:10045000A5020102A5020102740233020102810217
:100460008E02A702A5028091E4709091E570292F79
:1004700033272230310561F02330310599F02130E6
:10048000310509F0BECF62E170E08EE39FE804C061
:1004900063E470E08BEF9EE84091E8705091E97062
:1004A000DDDEB0CF99278130910569F0C0F0823050
:1004B000910579F0039709F0A4CF6091A48E70E0C4
:1004C00085EA9EE8E9CF6091E68E70E087EE9EE8CF
:1004D000E3CF6091BB8E70E08CEB9EE8DDCF64E0F3
:1004E00070E087EF9EE8D8CF8091E4708F7780939B
:1004F0000F70F6DE85E090E080931070909311709D
:1005000081CF80910E7080930A704091E870509175
:10051000E97061E070E08AE090E7C2CF8091E4701A
:1005200080930E70DDDE88DE82E08093480C6ACF17
:1005300010920B7010920C704091E8705091E9701D
:1005400062E070E08BE090E7ABCFCADE5BCF109249
:100550000A70DBCF82EE90E787D054CF84E090E042
:10056000809310709093117080910A7185FF12C072
:1005700063DE80E28093400C809110709091117046
:10058000029799F580910D70882319F010920D70E3
:1005900089D0A6DE8091227185FF04C04DDE80E205
:1005A0008093460C80912A7185FF09C045DE80E268
:1005B0008093480C80912C7190912D718AD08091FC
:1005C000427185FF05C038DE80E280934E0C8FD0EB
:1005D00080E280930B0CDF91CF91089580910F7092
:1005E0008093030C10920F7025CF10921070109210
:1005F0001170D0CF809168008C7B826498ED94BF9D
:100600008093680081E08093060F8FE697E1019761
:10061000F1F700C0000077DE8AE091E78093060CD6
:100620009093070C1092080C1092090C83E88093A9
:10063000000C80E492E4AFE0B0E02091850020FD62
:1006400004C00197A109B109C1F71092010C0895E6
:10065000E0E0FCE08181816081830895E0E0FCE0DE
:1006600081818E7F81830895FC019181913299F07F
:1006700018F4903221F096CE9432E8F779CE868144
:1006800097810797C1F781E08093137267E070E06C
:1006900080E090E76FCE4681578167E070E080E0B0
:1006A00090E767CE809113728111109213720895B2
:1006B000109211721092127210920F7210921072A8
:1006C00010920E7210920C7210920D7210921372A0
:1006D00008958134910510F080E490E080931172C8
:1006E0009093127210920F721092107208951092DD
:1006F0000E720895DDCF8091117290911272892B44
:10070000F1F020910F7230911072809111729091DE
:1007100012722817390798F0109211721092127203
:1007200010920F721092107210922C7110922D7103
:1007300080910B0C82FDFCCF82E08093480C80916D
:100740000E72811120C080910C7290910D72892BD4
:10075000D1F08091427181FF16C080910C7290910E
:100760000D72809344719093457180910B0C82FDC2
:10077000FCCF82E080934E0C81E080930E72109249
:100780000C7210920D72089520910F7230911072B8
:1007900080911172909112722817390788F4809114
:1007A0000F72909110729C012F5F3F4F20930F7238
:1007B000309310728E5A9F48FC01808190E008951A
:1007C0008FEF9FEF0895CF93C82F80910C72909177
:1007D0000D728034910598F480910C7290910D7295
:1007E0009C012F5F3F4F20930C7230930D728E5EF1
:1007F0009F48FC01C083CF9108957DDFD4DD8091B7
:100800000E728111FACF80910C7290910D7280342A
:10081000910598F7E1CF80910C7290910D72892B20
:1008200089F480910E7281110DC0089564DFBBDDE3
:1008300080910E72811106C080910C7290910D72A0
:10084000892B01F180910E728111F0CF80910C7291
:1008500090910D72892B51F380910C7290910D72D1
:10086000809344719093457180910B0C82FDFCCF75
:1008700082E080934E0C81E080930E7210920C7295
:1008800010920D72089584E19EDF80E19CCF10925A
:1008900032741092337410922F741092307410923C
:1008A0002E7410921974109217741092187410927A
:1008B00016741092147210921572EAE1F4E784E152
:1008C000DF011D928A95E9F740E052E06FEF70E09A
:1008D00086E192E7DEC23F924F925F926F927F92E3
:1008E0008F929F92AF92BF92CF92DF92EF92FF9240
:1008F0000F931F93CF93DF9300D000D0CDB7DEB717
:1009000083E0382E92E0E92EF12C20EF922E34E095
:10091000C32ED12C41EF842EAA24A394B12C34DF12
:1009200097FF15C02496CDBFDEBFDF91CF911F91F9
:100930000F91FF90EF90DF90CF90BF90AF909F907E
:100940008F907F906F905F904F903F900895482FC9
:1009500020913274309133742230310509F477C01C
:10096000C8F42115310509F445C021303105B9F627
:10097000E091197491E09E0F90931974F0E0E65E97
:10098000FB48808380912E74815080932E7488233D
:10099000E9F1C5CF2430310509F465C108F432C14D
:1009A0002530310509F0BBCFE091197491E09E0F1D
:1009B00090931974F0E0E65EFB48808380912E747A
:1009C000815080932E748111AACF80911A749091D6
:1009D0001B7498278927982780931774909318740D
:1009E00020911C74209316748130924078F4809288
:1009F00031740CC080933174E0EDE80FE63430F4CC
:100A0000F0E0E05BF04780818E3F29F4E0923274A1
:100A1000F092337484CF8F3F79F41092197430922E
:100A20002E7483E090E0443611F085E090E08093EE
:100A300032749093337473CF882341F310921974F6
:100A400080932E74A0923274B092337468CF803247
:100A500009F069C080913174803F31F5809116743E
:100A60008F7D863499F420911774309118746091B9
:100A70002F747091307490E080E046E152E716D117
:100A800002DF109232741092337449CF8534C1F76B
:100A9000409117745091187466E172E780912F7439
:100AA00090913074A8D1ECCF813F81F584E18BDE49
:100AB00040902F7450903074712C612C10E000E045
:100AC00080911774909118740817190718F080E135
:100AD0007ADED7CF809116748F7D863459F4C301A6
:100AE000B201600F711F811D911D68D16CDE0F5F17
:100AF0001F4FE6CF853441F480912F74909130746C
:100B0000800F911FB6D1F2CF8FEFF0CF853409F46B
:100B1000B7CF90F4803409F4B3CF38F4803309F4BC
:100B2000AFCF8133A9F185E1D3CF813409F43EC041
:100B3000823409F4A5CFF7CF823509F4A1CFC0F4F0
:100B4000803509F49DCF813571F784E13CDE80E189
:100B50003ADE61DE19821A821B821C8289819A81A7
:100B6000AB81BC8180349D40A340B10580F1C5DAE2
:100B70008635C9F1853709F43AC08535A1F68091EB
:100B80001A7490911B7480932F749093307478CF63
:100B900084E119DE06E91FE8FFE80D391F0709F4B3
:100BA00096CFF80181918F010EDEF6CF80911A74F5
:100BB00011E0803839F018E0813821F012E08238F5
:100BC00009F013E084E1FFDD812FFDDD80CF898115
:100BD0009A81AB81BC810196A11DB11D89839A8345
:100BE000AB83BC83BBCF84E1EEDD80E0EECF84E15C
:100BF000EADD80918010E7DD80918110E4DD809155
:100C00008210E3CFE091197491E09E0F90931974D4
:100C1000F0E0E65EFB48808380912E7481508093E3
:100C20002E7481117CCE80911A7490911B74982738
:100C300089279827809317749093187420911C74B7
:100C4000209316748130E2E09E0708F0DFCE109208
:100C5000147210921572892B09F4D8CEC092327496
:100C6000D09233745CCE2091147230911572A90128
:100C70004F5F5F4F40931472509315722A5E3D4848
:100C8000F90180838091177490911874481759075F
:100C900008F445CE90923174B9CE9091061091FD32
:100CA000FCCF9DE994BF809300100895CF92DF920E
:100CB000EF92FF920F931F93CF93DF936115E0E1C3
:100CC0007E078105910508F470C02115310509F4EE
:100CD0006CC089012130324010F000E012E0209118
:100CE0000110E1E0F0E0611530E87307810591053E
:100CF00010F4F0E0E0E07A016F0184E0CC0CDD1C40
:100D00008A95E1F72F7C2C2938ED34BF2093011010
:100D1000EB01D06888E0C1DF8FEF888380910610F7
:100D200081FDFCCF81E0B9DF809101108F7C8C299F
:100D300098ED94BF8093011082E0AFDFF70181E06E
:100D400090E0AE014E195F09DA01AE0FBF1F8017A8
:100D50009107E8F0A8014E7FC40FD51F4017510737
:100D600060F4E40EF51EF701808190E09F6F8883A8
:100D700099838091061081FDFCCF81E0DF91CF91B6
:100D80001F910F91FF90EF90DF90CF9086CF218140
:100D900030812327322723272D933C93209106105F
:100DA00021FDFCCF02963296CFCFDF91CF911F91DC
:100DB0000F91FF90EF90DF90CF9008954091011038
:100DC00021E030E0611550E875078105910510F4C8
:100DD00030E020E084E0220F331F8A95E1F7342FC2
:100DE0003F7C322B28ED24BF30930110AB015068BB
:100DF000FA01808108950F931F938F3F910509F0A9
:100E000058F58A0130E020E0080F191F211D311D1F
:100E10000130114021053105E0F040E051E0481B70
:100E2000590B209106102370E1F72DE924BF23E12F
:100E300020930010460F571FFB01861B970B9C5EEB
:100E4000E417F50761F48DE984BF81E08093001019
:100E500003C04115510529F71F910F910895DC0139
:100E6000AE0FBF1F21912C932091061020FDFCCFC7
:100E7000E7CF8F3F910509F020F49C5EFC01808153
:100E800008958FEF0895EE0FFF1F0590F491E02D68
:100E90000994DC0101C06D9341505040E0F7089582
:040EA000F894FFCFF4
:100EA40016160342004C0030003000300030003091
:100EB400003000300031002A2A034100560052005D
:100EC4004400550020004300440043002000420039
:100ED4006F006F0074006C006F00610064006500B7
:100EE40072001010034100560052004400550042A5
:100EF400004C00040309040902430002010080328B
:100F04000904000001020201000524001001052467
:100F140001000104240202052406000107058103DF
:100F240010004009040100020A0000000705020243
:100F34004000000705830240000012010002020085
:100F44000040091233DA0001010203010000FEFE31
:100F5400FEFEFEFEFEFEFEFEFEFEFEFE020114FE90
:100F6400FE05FEFEFEFEFEFEFEFEFEFE000000FE90
:100F7400FE0204FEFEFEFEFEFEFEFEFEFEFEFEFE83
:100F8400FFFEFEFEFEFEFEFEFEFEFEFEFEFEFEFE7C
:0A0F9400FF004156522053544B0059
:080F9E0000C201000000080080
:00000001FF
