:1000000043C000005CC000005AC0000058C000009F
:1000100056C0000054C0000052C0000050C0000094
:100020004EC000004CC000004AC0000048C00000A4
:1000300046C0000044C0000042C0000040C00000B4
:100040003EC000003CC000003AC0000038C00000C4
:1000500036C0000034C0000032C0000030C00000D4
:100060002EC000002CC000002AC0000028C00000E4
:1000700026C0000024C0000022C0000020C00000F4
:100080001EC000001CC0000011241FBECFEFCDBF5A
:10009000DFE7DEBF10E7A0E0B0E7E7E5FFE002C082
:1000A00005900D92A830B107D9F724E7A8E0B0E792
:1000B00001C01D92A433B207E1F72BD09DC6A0CF9B
:1000C000CF93DF9300D0CDB7DEB789E190E01982FE
:1000D0001A8229813A81283E334038F00197B9F7D6
:1000E0000F900F90DF91CF910895000029813A8100
:1000F0002F5F3F4F29833A83ECCF80E180936504E3
:100100008093620495D288ED91E084BF90930001C2
:10011000FFCF809140008CBB9FEF90934000909167
:100120001001906428ED24BF9093100184FF34C027
:100130001092347410923574C0E4DFE1809168004D
:1001400098ED837C846294BF8093680080E094BFC4
:10015000809361008091650081FFFCCF36D2B5D2DB
:1001600088D3C0930870D093097080E180936104B4
:100170008093650457D210E1C0E0D0E00FD1A6D241
:100180009CD321968091087090910970C817D90767
:10019000A8F310936704F0CF82FF25C080913474D8
:1001A000909135748D399B4639F4109234741092C5
:1001B0003574C0E8DEE3C2CF8DE99BE680933474EA
:1001C0009093357480E180936104C0E1DAE0C093DC
:1001D000660476DFC093650473DFD150C1F7C09326
:1001E0006504C09362041092347410923574E0E098
:1001F000F0E185919591C0E0DDE7019609F49ECF8D
:10020000F89480E1809365048093620480911001EA
:1002100098ED8F7B94BF809310011092000C109288
:10022000010C80910110806394BF80930110E0E085
:10023000F8E0099480910B0C82FDFCCF0895EAEE62
:10024000F0E781A1846081A381A5846081A71092D9
:100250001070109211700895CF939B0146175707A5
:1002600008F49A012134310550F5FC01820F931FE7
:10027000A2EAB0E7E817F907F9F482EA90E7809379
:100280001671909317712093147130931571109219
:1002900018711092197183E480931371CBDFCAE651
:1002A000C093420CC7DFC093400C81E08093107074
:1002B00010921170CF91089541914D93DBCF8093AF
:1002C00016719093177120931471309315711092D9
:1002D00018711092197183E7DFCFEAEEF0E712A6EA
:1002E00013A616A617A683E481A7A4DF8AE6809347
:1002F000420C83E080931070109211700895EAEE22
:10030000F0E782E291E0DF019C011D922150304034
:10031000E1F783E481A322EE30E724A335A310A202
:1003200081A782EA90E784A795A782E080A791E859
:1003300091AF22E930E724AF35AF80AF93E89093D7
:100340002B7122E530E720932E7130932F7110929C
:100350002A719093437122E130E7209346713093E4
:100360004771809342710895B8CF76CFEAEEF0E7F7
:1003700084A795A712A613A666A777A783E681A7E9
:1003800059DF8AE68093400C82E0809310701092CF
:10039000117081E080930D70089551CFCF93DF935A
:1003A00080910A0CC0910B0C84FF11C01092030CB9
:1003B000A6DF109210701092117010920E701092B1
:1003C0000F7010920D705FD180E180930A0CC0FF16
:1003D00017C083E480930B71809313712BDFD0E1FE
:1003E000D093400C27DFD093420C8091E27080764E
:1003F00009F1803209F49AC022DF81E080930B0C6E
:10040000C5FFD4C08091127185FF99C013DF80E2CF
:100410008093420C80911070909111708130910501
:1004200009F488C0059709F4C4C0109210701092A6
:10043000117085C0E091E370EC30F0F6F0E0E2502E
:10044000F94FCDC42091E4703091E570832F90E096
:100450008230910589F18330910539F0019761F679
:1004600062E170E084EF9EE81BC0822F90E02230B2
:10047000E9F08330910538F4892B69F464E070E089
:100480008DEA9EE80DC009F0B7CF6091428E70E012
:1004900083E49EE805C060918E8E70E08FE89EE850
:1004A0004091E8705091E970D7DEA7CF6091598EE6
:1004B00070E08AE59EE8F4CF63E470E081EB9EE8AB
:1004C000EFCF8091E4708F7780930F7006DF85E027
:1004D000809310701092117090CF80910E70809365
:1004E0000A704091E8705091E97061E070E08AE034
:1004F00090E7DACF8091E47080930E70EEDE9ADEA2
:1005000082E08093480C79CF10920B7010920C709F
:100510004091E8705091E97062E070E08BE090E704
:10052000C3CFDBDE6ACF10920A70DBCF82EE90E79A
:1005300085D063CF84E08093107010921170809109
:100540000A7185FF12C076DE80E28093400C8091B4
:10055000107090911170029799F580910D7081152E
:1005600019F010920D7089D0B8DE8091227185FF4C
:1005700004C060DE80E28093460C80912A7185FF82
:1005800009C058DE80E28093480C80912C719091D4
:100590002D718AD08091427185FF05C04BDE80E2CB
:1005A00080934E0C8FD080E280930B0CDF91CF9123
:1005B000089580910F708093030C10920F7035CFC7
:1005C0001092107010921170D0CF809168008C7BC7
:1005D000826498ED94BF809368001092060F8FE6B6
:1005E00097E10197F1F700C0000089DE8AE091E70A
:1005F0008093060C9093070C1092080C1092090C33
:1006000083E88093000C80E492E4AFE0B0E02091B6
:10061000850020FD04C00197A040B040C1F71092B2
:10062000010C0895E0E0FCE0818181608183089500
:10063000E0E0FCE081818E7F81830895FC0191815F
:10064000943230F49232C0F4903219F0913269F061
:10065000A4CE868197810797D9F781E080931372A2
:1006600067E070E080E090E781CE4681578167E0E7
:1006700070E080E090E779CE77CE8091137281119F
:1006800010921372089510921172109212721092B9
:100690000F721092107210920E7210920C721092D1
:1006A0000D721092137208958134910510F080E458
:1006B00090E0809311729093127210920F721092C8
:1006C0001072089510920E720895DDCF809111720C
:1006D00090911272892BF1F020910F72309110726B
:1006E00080911172909112722817390798F0109228
:1006F00011721092127210920F7210921072109268
:100700002C7110922D7180910B0C82FDFCCF82E038
:100710008093480C80910E72811120C080910C72E0
:1007200090910D72892BD1F08091427181FF16C09A
:1007300080910C7290910D728093447190934571E9
:1007400080910B0C82FDFCCF82E080934E0C81E007
:1007500080930E7210920C7210920D720895209177
:100760000F7230911072809111729091127228174D
:10077000390788F480910F72909110729C012F5F5D
:100780003F4F20930F72309310728E5A9F48FC0196
:10079000808190E008958FEF9FEF0895CF93DF93CE
:1007A0000F92CDB7DEB7898380910C7290910D7254
:1007B00080349105B0F480910C7290910D729C017F
:1007C0002F5F3F4F20930C7230930D728E5E9F48C7
:1007D0002981FC0120830F90DF91CF91089576DF6E
:1007E000DDDD80910E728111FACF80910C729091B3
:1007F0000D728034910598F7DECF80910C72909144
:100800000D72892B89F480910E7281110DC00895AB
:100810005DDFC4DD80910E72811106C080910C7283
:1008200090910D72892B01F180910E728111F0CFA0
:1008300080910C7290910D72892B51F380910C7202
:1008400090910D72809344719093457180910B0C3F
:1008500082FDFCCF82E080934E0C81E080930E728B
:1008600010920C7210920D72089584E197DF80E16E
:1008700095CF109232741092337410922F7410929C
:10088000307410922E741092197410921774109282
:100890001874109216741092147210921572EAE184
:1008A000F4E784E1DF011D928A95E9F740E052E028
:1008B0006FEF70E086E192E798C28F929F92AF92BD
:1008C000BF92EF92FF920F931F93CF93DF9300D0CD
:1008D00000D0CDB7DEB702E010E041DF97FF0EC0D9
:1008E0002496CDBFDEBFDF91CF911F910F91FF9076
:1008F000EF90BF90AF909F908F900895482F2091D8
:100900003274309133742330310509F43FC148F516
:100910002130310509F47AC02230310509F04EC08A
:10092000803209F0CFC0E0913174E03F09F08FC010
:10093000809116748F7D863409F07AC020911774E7
:100940003091187460912F747091307480E090E051
:1009500046E152E76CD189DF109232741092337401
:10096000BCCF2430310509F43DC12530310509F0F3
:10097000B4CFE091197491E09E0F90931974F0E058
:10098000E65EFB48808380912E74815080932E74A4
:100990008111A3CF80911A7490911B749827892795
:1009A0009827809317749093187420911C74209347
:1009B00016748130924070F481EF2CC180933174B1
:1009C0008053863438F4E82FF0E0E75FF047808109
:1009D0008E3F29F400933274109333747ECF70F0FD
:1009E0001092197483E080932E74443629F4809316
:1009F00032741092337471CF85E0F9CF811551F3C1
:100A00001092197480932E7481E0F1CFE0911974E3
:100A100091E09E0F90931974F0E0E65EFB488083AE
:100A200080912E74815080932E74811599F255CF48
:100A3000853409F090CF409117745091187466E195
:100A400072E780912F749091307489D184CFE13F07
:100A500081F584E1A3DE80902F7490903074A12CF6
:100A6000B12C75018091177490911874E816F906ED
:100A700018F080E193DE70CF809116748F7D8634FC
:100A800061F4B401C5016E0D7F1D811D911D53D10F
:100A900085DE2FEFE21AF20AE5CF853441F480912A
:100AA0002F74909130748E0D9F1D91D1F1CF8FEFE7
:100AB000EFCFE73580F4E03438F4E03309F44BCF7E
:100AC000E133B1F085E1D6CFE054E731D8F7F0E07B
:100AD000E65FF84F84C1E537A9F784E15FDE8091D6
:100AE00080105CDE8091811059DE8091821020C0E0
:100AF00084E154DE9FE4E92E9FE8F92EF7014FEFE1
:100B0000E41AF40A80814ADE86E5E8168FE8F806E2
:100B1000A9F7AFCFE0911A74E05883E0F82EE330E4
:100B200020F4F0E0EA5FF047F08084E137DE8F2DBB
:100B300035DE9FCF84E132DE80E130DE5EDE198279
:100B40001A821B821C8289819A81AB81BC8180348C
:100B50009D40A340B10508F0D0DA89819A81AB812C
:100B6000BC810196A11DB11D89839A83AB83BC838F
:100B7000EACF80911A7490911B7480932F74909394
:100B80003074E9CE84E10ADE80E0D2CFE0911974BE
:100B900091E09E0F90931974F0E0E65EFB4880832D
:100BA00080912E74815080932E74811196CE809105
:100BB0001A7490911B74382F292F90931774809377
:100BC000187440911C74409316742130324008F020
:100BD00001CF1092147210921572892B09F4FACE7B
:100BE00084E005CF2091147230911572A9014F5FF6
:100BF0005F4F40931472509315722A5E3D48F9017D
:100C0000808380911774909118744817590708F4DD
:100C100064CE80EF8093317482E0E9CE909106102B
:100C200091FDFCCF9DE994BF809300100895BF9281
:100C3000CF92DF92EF92FF920F931F93CF93DF93A8
:100C40006A0170318105910508F46BC021153105E9
:100C500009F467C0E9012130324010F0C0E0D2E071
:100C60002091011031E070388105910508F430E0E1
:100C7000F32EF29480EFF8222F7C322F3F2928EDBB
:100C800024BF309301108B011068E02EB12E88E054
:100C9000C5DF8FEFF80180838091061081FDFCCFC6
:100CA00081E0BCDF809101108F7CF82A88ED84BF41
:100CB000F092011082E0B2DFD60181E090E08C1763
:100CC0009D07F0F0CE018E7F8C179D0770F4EC012C
:100CD000C00FD11FC80ED91EF60180819FEF8883F7
:100CE00099838091061081FDFCCF81E0DF91CF9147
:100CF0001F910F91FF90EF90DF90CF90BF908ECF1C
:100D000011964C912E91342FEE2DFB2D2193319382
:100D10002091061021FDFCCF02961296EE2EBF2EDA
:100D2000CECFDF91CF911F910F91FF90EF90DF9089
:100D3000CF90BF9008953091011021E07038810567
:100D4000910508F420E03F7C20FD306128ED24BFB0
:100D500030930110AB015068FA01808108950F9320
:100D60001F93911131C08A0120E030E0080F191F54
:100D7000211D311D013011402105310510F140E0E8
:100D800051E0481B590BFC01FC5E809106108370FA
:100D9000E1F78DE984BF83E180930010DB01460F0A
:100DA000571F8D9180838091061080FDFCCF319676
:100DB000A417B507B1F78DE984BF81E080930010D7
:100DC00003C041155105F9F61F910F910895911136
:100DD00004C0FC01FC5E808108958FEF0895EE0F42
:100DE000FF1F0590F491E02D0994DC0101C06D9383
:100DF00041505040E0F70895F894FFCF84029102EB
:100E0000FC019102FC0161022202FC016D027A02E6
:100E100093029102AB048A05AB0462056205AB0440
:100E2000620562056205620562056205620562058A
:100E300062056205AB049A05AB0462056205B9055B
:020E4000C205E9
:100E420016160342004C00300030003000300030F3
:100E520000300030003100343403570061007A0062
:100E620061006D006F006E006F0020004B00750086
:100E72006E0061006900200042006F006F00740084
:100E82006C006F0061006400650072001E1E035753
:100E9200006F0072006B00730068006F007000202A
:100EA200004100730061006800690004030904093D
:100EB2000243000201008032090400000102020123
:100EC200000524001001052401000104240202058A
:100ED20024060001070581031000400904010002F5
:100EE2000A000000070502024000000705830240D5
:100EF2000000120100020200004009120900000174
:100F0200010203010108020000FEFEFEFEFEFEFEDB
:100F1200FEFEFEFEFEFEFE020114FEFE05FEFEFECB
:100F2200FEFEFEFEFEFEFE000000FEFE0204FEFECF
:100F3200FEFEFEFEFEFEFEFEFEFEFEFFFEFEFEFECE
:100F4200FEFEFEFEFEFEFEFEFEFEFEFF00415652CD
:050F52002053544B0088
:080F570000C2010000000800C7
:040FFA00F8950895C9
:020FFE00011AD6
:00000001FF
