:1000000043C000005CC000005AC0000058C000009F
:1000100056C0000054C0000052C0000050C0000094
:100020004EC000004CC000004AC0000048C00000A4
:1000300046C0000044C0000042C0000040C00000B4
:100040003EC000003CC000003AC0000038C00000C4
:1000500036C0000034C0000032C0000030C00000D4
:100060002EC000002CC000002AC0000028C00000E4
:1000700026C0000024C0000022C0000020C00000F4
:100080001EC000001CC0000011241FBECFEFCDBF5A
:10009000DFE7DEBF11E6A0E0B0E6E4EDFDE002C080
:1000A00005900D92A230B107D9F725E6A2E0B1E69E
:1000B00001C01D92AE32B207E1F72BD089C6A0CFA6
:1000C000CF93DF9300D0CDB7DEB78AE190E0019700
:1000D00029F40F900F90DF91CF91089519821A8221
:1000E00029813A81283E334090F7000029813A81E6
:1000F0002F5F3F4F29833A83F3CF84E08093A50499
:100100008093A204A9D288ED91E084BF909300016E
:10011000FFCF809140008CBB9FEF9093400098ED03
:1001200094BF9091100190649093100184FF34C0AB
:1001300010922E6510922F65C0E4DFE18091680077
:10014000837C846298ED94BF8093680080E094BFC4
:10015000809361008091650081FFFCCF49D2C8D2B5
:1001600094D3C0930261D093036184E08093A1048F
:100170008093A5046BD214E0D0E0C0E012D1B9D2D4
:10018000A8D321968091026190910361C817D90785
:10019000A8F31093A704F0CF82FF25C080912E65AD
:1001A00090912F658D399B4639F410922E651092EF
:1001B0002F65C0E8DEE3C2CF8DE99BE680932E6514
:1001C00090932F6584E08093A104DAE0C4E0C093AB
:1001D000A60476DFC093A50473DFD150C1F7C093A6
:1001E000A504C093A20410922E6510922F65E0E042
:1001F000F0E185919491C0E0DDE7019609F49ECF8E
:10020000F89484E08093A5048093A20498ED94BFB1
:10021000809110018F7B809310011092000C10923E
:10022000010C80910110806394BF80930110E0E085
:10023000F8E0099480910B0C82FDFCCF0895E4EE68
:10024000F1E681A1846081A381A5846081A71092D9
:100250000A6110920B610895CF939B0146175707CF
:1002600008F49A01FC01ACE9B1E62134310580F0D3
:10027000809310629093116220930E6230930F620C
:10028000109212621092136283E717C081918D93CE
:10029000CD018C59914682179307C0F38CE991E602
:1002A000809310629093116220930E6230930F62DC
:1002B000109212621092136283E480930D62BADF8F
:1002C000CAE6C093420CB6DFC093400C81E090E0D8
:1002D00080930A6190930B61CF910895E4EEF1E66B
:1002E00012A613A616A617A683E481A7A3DF8AE6A3
:1002F0008093420C83E090E080930A6190930B61BD
:100300000895E4EEF1E682E291E0DF019C011D92A6
:1003100021503040E1F783E481A32CED31E624A3A2
:1003200035A310A281A78CE991E684A795A782E066
:1003300080A791E891AF2CE831E624AF35AF80AFCC
:1003400093E8909325622CE431E620932862309361
:1003500029621092246290933D622CE031E6209352
:1003600040623093416280933C620895B7CF74CF6E
:10037000E4EEF1E684A795A712A613A666A777A7D1
:1003800083E681A757DF8AE68093400C82E090E005
:1003900080930A6190930B6181E0809307610895D7
:1003A0004ECFCF93DF9380910A0CC0910B0C84FF4A
:1003B00011C01092030CA5DF10920A6110920B611C
:1003C0001092086110920961109207616FD180E16B
:1003D00080930A0CC0FF17C083E48093056280936A
:1003E0000D6228DFD0E1D093400C24DFD093420C83
:1003F0008091DC61807609F1803209F4A9C01FDFA9
:1004000081E080930B0CC5FFE4C080910C6285FFF6
:10041000A9C010DF80E28093420C80910A61909124
:100420000B618130910509F497C0059709F4D4C098
:1004300010920A6110920B6195C0E091DD61EC3081
:10044000F0F6F0E0EB5DFD4FB6C49602A302FF01AB
:10045000A302FF0172023102FF017F028C02A5029A
:10046000A3028091DE619091DF61292F3327223032
:10047000310561F02330310599F02130310509F063
:10048000BECF62E170E081EA90E604C063E470E010
:100490008EE590E64091E2615091E361DDDEB0CF00
:1004A00099278130910569F0C0F08230910579F08B
:1004B000039709F0A4CF6091076070E088E090E6B0
:1004C000E9CF6091496070E08AE490E6E3CF609103
:1004D0001E6070E08FE190E6DDCF64E070E08AE5B9
:1004E00090E6D8CF8091DE618F7780930961F6DE48
:1004F00085E090E080930A6190930B6181CF8091B9
:100500000861809304614091E2615091E36161E090
:1005100070E084E091E6C2CF8091DE618093086153
:10052000DDDE88DE82E08093480C6ACF10920561A0
:10053000109206614091E2615091E36162E070E0E7
:1005400085E091E6ABCFCADE5BCF10920461DBCFD2
:100550008CED91E687D054CF84E090E080930A61DF
:1005600090930B618091046285FF12C063DE80E28C
:100570008093400C80910A6190910B61029799F5EC
:1005800080910761882319F01092076189D0A6DE57
:1005900080911C6285FF04C04DDE80E28093460C92
:1005A0008091246285FF09C045DE80E28093480C7B
:1005B00080912662909127628AD080913C6285FF6B
:1005C00005C038DE80E280934E0C8FD080E28093AD
:1005D0000B0CDF91CF910895809109618093030CFA
:1005E0001092096125CF10920A6110920B61D0CF51
:1005F000809168008C7B826498ED94BF8093680042
:1006000081E08093060F8FE697E10197F1F700C034
:10061000000077DE84E092E68093060C9093070C4E
:100620001092080C1092090C83E88093000C80E46F
:1006300092E4AFE0B0E02091850020FD04C0019776
:10064000A109B109C1F71092010C0895E0E0FCE0A6
:100650008181816081830895E0E0FCE081818E7F6B
:1006600081830895FC019181913299F018F49032C0
:1006700021F096CE9432E8F779CE8681978107975C
:10068000C1F781E080930D6367E070E080E090E661
:100690006FCE4681578167E070E080E090E667CEDC
:1006A00080910D63811110920D63089510920B6378
:1006B00010920C631092096310920A6310920863FF
:1006C000109206631092076310920D6308958134AF
:1006D000910510F080E490E080930B6390930C639D
:1006E0001092096310920A630895109208630895A6
:1006F000DDCF80910B6390910C63892BF1F02091F9
:10070000096330910A6380910B6390910C63281701
:10071000390798F010920B6310920C6310920963E2
:1007200010920A63109226621092276280910B0C3D
:1007300082FDFCCF82E08093480C80910863811198
:1007400020C08091066390910763892BD1F080913E
:100750003C6281FF16C0809106639091076380938D
:100760003E6290933F6280910B0C82FDFCCF82E051
:1007700080934E0C81E08093086310920663109280
:10078000076308952091096330910A6380910B6398
:1007900090910C632817390788F480910963909130
:1007A0000A639C012F5F3F4F2093096330930A63D4
:1007B000845B9E49FC01808190E008958FEF9FEF5C
:1007C0000895CF93C82F809106639091076380347A
:1007D000910598F480910663909107639C012F5FC7
:1007E0003F4F2093066330930763845F9E49FC016B
:1007F000C083CF9108957DDFD4DD8091086381119E
:10080000FACF80910663909107638034910598F741
:10081000E1CF8091066390910763892B89F48091E1
:10082000086381110DC0089564DFBBDD809108630A
:10083000811106C08091066390910763892B01F1B5
:10084000809108638111F0CF8091066390910763D6
:10085000892B51F3809106639091076380933E62E8
:1008600090933F6280910B0C82FDFCCF82E08093DD
:100870004E0C81E080930863109206631092076328
:10088000089584E19EDF80E19CCF10922C65109248
:100890002D651092296510922A6510922865109294
:1008A00013651092116510921265109210651092E6
:1008B0000E6310920F63E4E1F5E684E1DF011D921F
:1008C0008A95E9F740E052E06FEF70E080E193E64F
:1008D00078C23F924F925F926F927F928F929F92D7
:1008E000AF92BF92CF92DF92EF92FF920F931F933E
:1008F000CF93DF9300D000D0CDB7DEB782E0E82EF3
:10090000F12C90EF392E24E0C22ED12C31EF932E12
:10091000AA24A394B12C53E0852E34DF97FF15C091
:100920002496CDBFDEBFDF91CF911F910F91FF9035
:10093000EF90DF90CF90BF90AF909F908F907F907F
:100940006F905F904F903F900895482F20912C65B5
:1009500030912D652230310509F477C0C8F4211596
:10096000310509F445C021303105B9F6E091136530
:1009700091E09E0F90931365F0E0EC5EFA4980835E
:10098000809128658150809328658823E9F1C5CF3F
:100990002430310509F447C108F414C1253031056C
:1009A00009F0BBCFE091136591E09E0F9093136522
:1009B000F0E0EC5EFA498083809128658150809355
:1009C00028658111AACF80911465909115659827AB
:1009D0008927982780931165909312652091166559
:1009E000209310658130924078F490922B650CC072
:1009F00080932B65E0EDE80FE63430F4F0E0ED5441
:100A0000FF4980818E3F29F4E0922C65F0922D659C
:100A100084CF8F3F79F4109213658092286583E02C
:100A200090E0443611F085E090E080932C6590933F
:100A30002D6573CF882341F3109213658093286549
:100A4000A0922C65B0922D6568CF803209F04EC01F
:100A500080912B65803FC1F4809110658F7D863435
:100A600069F420911165309112656091296570914A
:100A70002A6590E080E040E153E6F8D002DF109272
:100A80002C6510922D6549CF813F31F584E199DEC7
:100A90004090296550902A65712C612C10E000E08F
:100AA00080911165909112650817190718F080E17F
:100AB00088DEE5CF809110658F7D863459F4C301BF
:100AC000B201600F711F811D911D58D17ADE0F5F39
:100AD0001F4FE6CF8FEFFACF853481F280F4803458
:100AE00069F230F4803351F28133A9F185E1E0CF2E
:100AF000813409F43EC0823409F4C0CFF7CF823587
:100B000009F4BCCFC0F4803509F4B8CF813571F752
:100B100084E157DE80E155DE7CDE19821A821B8279
:100B20001C8289819A81AB81BC8180349D40A34025
:100B3000B10580F1E2DA8635C9F1853709F43AC0AA
:100B40008535A1F68091146590911565809329658E
:100B500090932A6593CF84E134DE09EF10E6F1E645
:100B600000301F0709F4A3CFF80181918F0129DE1E
:100B7000F6CF8091146511E0803839F018E08138A3
:100B800021F012E0823809F010E084E11ADE812FB2
:100B900018DE8DCF89819A81AB81BC810196A11D20
:100BA000B11D89839A83AB83BC83BBCF84E109DE0B
:100BB00080E0EECF84E105DE8EE103DE86E901DE32
:100BC00081E2E6CFE091136591E09E0F909313656B
:100BD000F0E0EC5EFA498083809128658150809333
:100BE000286581119ACE809114659091156598279A
:100BF0008927982780931165909312652091166537
:100C0000209310658130E2E09E0708F0FDCE10923F
:100C10000E6310920F63892B09F4F6CEC0922C65F7
:100C2000D0922D657ACE20910E6330910F63A90189
:100C30004F5F5F4F40930E6350930F63205F3C49BB
:100C4000F9018083809111659091126548175907C9
:100C500008F463CE30922B65D7CE9091061091FDAB
:100C6000FCCF9DE994BF809300100895CF92DF924E
:100C7000EF92FF920F931F93CF93DF936115E0E103
:100C80007E078105910508F470C02115310509F42E
:100C90006CC089012130324010F000E012E0209158
:100CA0000110E1E0F0E0611530E87307810591057E
:100CB00010F4F0E0E0E07A016F0184E0CC0CDD1C80
:100CC0008A95E1F72F7C2C2938ED34BF2093011051
:100CD000EB01D06888E0C1DF8FEF88838091061038
:100CE00081FDFCCF81E0B9DF809101108F7C8C29E0
:100CF00098ED94BF8093011082E0AFDFF70181E0AF
:100D000090E0AE014E195F09DA01AE0FBF1F8017E8
:100D10009107E8F0A8014E7FC40FD51F4017510777
:100D200060F4E40EF51EF701808190E09F6F8883E8
:100D300099838091061081FDFCCF81E0DF91CF91F6
:100D40001F910F91FF90EF90DF90CF9086CF218180
:100D500030812327322723272D933C93209106109F
:100D600021FDFCCF02963296CFCFDF91CF911F911C
:100D70000F91FF90EF90DF90CF9008954091011078
:100D800021E030E0611550E875078105910510F408
:100D900030E020E084E0220F331F8A95E1F7342F02
:100DA0003F7C322B28ED24BF30930110AB015068FB
:100DB000FA0180810895EE0FFF1F0590F491E02D58
:100DC0000994DC0101C06D9341505040E0F7089553
:040DD000F894FFCFC5
:100DD40000C2010000000816160342004C00300057
:100DE40030003000300030003000300031002A2A5A
:100DF40003410056005200440055002000430044C3
:100E0400004300200042006F006F0074006C006F0C
:100E14000061006400650072001010034100560078
:100E240052004400550042004C0004030904090226
:100E340043000201008032090400000102020100A3
:100E440005240010010524010001042402020524E4
:100E54000600010705810310004009040100020A8D
:100E6400000000070502024000000705830240005D
:100E7400001201000202000040091233DA000101ED
:100E84000203010000FEFEFEFEFEFEFEFEFEFEFE6E
:100E9400FEFEFE020114FEFE05FEFEFEFEFEFEFE4A
:100EA400FEFEFE000000FEFE0204FEFEFEFEFEFE4E
:100EB400FEFEFEFEFEFEFEFFFEFEFEFEFEFEFEFE4D
:100EC400FEFEFEFEFEFEFEFF004156522053544B32
:020ED40000001C
:00000001FF
